:020000040800F2
:1000000000800120092E0008C90C0008CB0C000854
:10001000CD0C0008CF0C0008D10C00080000000037
:10002000000000000000000000000000D30C0008E9
:10003000D50C000800000000D70C0008D90C0008FF
:10004000592E0008592E0008592E0008592E000874
:10005000592E0008592E0008592E0008592E000864
:10006000592E0008E50C0008EF0C0008592E000876
:10007000592E0008592E0008592E0008592E000844
:10008000592E0008592E0008592E0008592E000834
:10009000592E0008592E0008592E0008F90C0008A6
:1000A000592E0008592E0008592E0008592E000814
:1000B000592E0008592E0008592E0008592E000804
:1000C000592E0008592E0008592E0008592E0008F4
:1000D000592E0008090D0008190D0008592E0008B6
:1000E000410D0008592E0008592E0008592E00080D
:1000F000592E0008592E0008592E0008592E0008C4
:10010000592E0008592E0008592E0008592E0008B3
:10011000592E0008592E0008592E0008592E0008A3
:10012000592E0008592E0008592E0008592E000893
:10013000592E0008592E0008592E0008592E000883
:10014000592E0008592E0008592E0008592E000873
:10015000592E0008592E0008592E0008592E000863
:10016000592E0008592E0008592E0008592E000853
:10017000592E0008592E0008592E000800000000D2
:08018000592E0008592E000859
:1001880010B5054C237833B9044B13B10448AFF3C9
:1001980000800123237010BD100000200000000023
:1001A800B42E000808B5034B1BB103490348AFF34D
:1001B800008008BD0000000014000020B42E0008D4
:1001C80053B94AB9002908BF00281CBF4FF0FF31B6
:1001D8004FF0FF3000F06EB9ADF1080C6DE904CEB8
:1001E80000F006F8DDF804E0DDE9022304B070470A
:1001F8002DE9F047089D04468C46002B40F083808B
:100208008A42174647D9B2FA82F242B1C2F12000B7
:1002180024FA00F09140974040EA010C94404FEADC
:100228001748230CBCFBF8F61FFA87FE08FB16C11B
:1002380043EA014306FB0EF1994209D9FB1806F17E
:10024800FF3080F01981994240F21681023E3B440A
:100258005B1AA4B2B3FBF8F008FB103344EA03447A
:1002680000FB0EFEA64509D93C1900F1FF3380F0CA
:100278000581A64540F2028102383C4440EA064026
:10028800A4EB0E0400261DB1D4400023C5E90043A9
:100298003146BDE8F08702B9FFDEB2FA82F2002AE1
:1002A80050D1CB1B4FEA174E1FFA87F80126B3FB34
:1002B800FEFC210C0EFB1C3341EA034108FB0CF346
:1002C8008B4207D979180CF1FF3002D28B4200F229
:1002D800E9808446C91AA3B2B1FBFEF00EFB1011E7
:1002E80043EA014408FB00F8A04507D93C1900F18E
:1002F800FF3302D2A04500F2D9801846A4EB0804C7
:1003080040EA0C40BFE78B4209D9002D00F0B180CC
:100318000026C5E9000130463146BDE8F087B3FA4A
:1003280083F6002E4AD18B4202D3824200F2B88073
:10033800841A61EB030101208C46002DA8D0C5E981
:10034800004CA5E7C2F1200320FA03F6974001FA12
:1003580002F04FEA174ED9403043030CB1FBFEF6CA
:100368001FFA87F80EFB161143EA014306FB08F152
:10037800994204FA02F409D9FB1806F1FF3C80F00F
:100388008D80994240F28A80023E3B445B1A81B2DA
:10039800B3FBFEF00EFB103341EA034100FB08F308
:1003A8008B4207D9791800F1FF3C73D28B4271D97F
:1003B80002383944CB1A40EA064678E7C6F1200CE1
:1003C80003FA06F422FA0CF31C4320FA0CF701FA9C
:1003D80006F34FEA144E21FA0CF11F433B0CB1FB14
:1003E800FEF91FFA84F80EFB191143EA014109FBD3
:1003F80008FA8A4502FA06F200FA06F308D96118E3
:1004080009F1FF3048D28A4546D9A9F102092144A9
:10041800A1EB0A01BFB2B1FBFEF00EFB101147EAD7
:10042800014700FB08F8B84507D9E71900F1FF3183
:100438002ED2B8452CD90238274440EA0940A7EB08
:100448000807A0FB02894F45C64649461AD317D06C
:100458005DB1B3EB0E0267EB010707FA0CFCF24043
:100468004CEA0202F740C5E9002700263146BDE8FC
:10047800F0872E4628460BE70646E9E61846FDE6CD
:100488004345E5D2B8EB020E69EB04010138DFE71A
:100498000846D2E760468DE78146B9E7664675E7C4
:1004A80030464AE7ACF1020C394413E702383C44C1
:1004B80024E700BF704700BF70B588B000240394DC
:1004C8000494059406940794394BDA6C42F00402BC
:1004D800DA64DA6C02F004020092009ADA6C42F0F4
:1004E8000102DA64DA6C02F001020192019ADA6C14
:1004F80042F00202DA64DB6C03F002030293029B0F
:100508002C4E01220321304601F0B4FE012240F2B4
:1005180013114FF0904001F0ADFE4FF400530393D8
:10052800254B0493059403A9304601F0BDFD032330
:100538000393012504950594069403A9304601F018
:10054800B3FD40F21313039304950594069403A98D
:100558004FF0904001F0A8FD4FF48F630393174BC1
:100568000493059503A9164801F09EFD22462946E5
:10057800092001F01DFF092001F04EFF22462946FF
:100588000A2001F015FF0A2001F046FF22462946FD
:10059800172001F00DFF172001F03EFF22462946E3
:1005A800282001F005FF282001F036FF08B070BDB3
:1005B800001002400008004800002110000011103F
:1005C8000004004808B50E480E4B03604FF48273D0
:1005D8004360002383604FF4E062C26003614361BB
:1005E8004FF4007282613022C26103624362836207
:1005F8000722C26203630823436300F063FC08BD5B
:10060800AC0000200030014008B50948094B0360E0
:100618004FF4E133436000238360C36003610C221D
:1006280042618361C3610362436202F092FB08BDC9
:100638002C0000200038014008B50948094B036028
:100648004FF4E133436000238360C36003610C22ED
:1006580042618361C3610362436202F07AFB08BDB1
:10066800100100200044004030B5B9B02422002118
:1006780028A802F013FC002422942394249425949F
:10068800269488222146684602F008FC0223279314
:100698004FF480722A9210222B92319332930122C6
:1006A80033920A223492072235923693379327A839
:1006B80000F07EFD0F23229303252395249425948F
:1006C8002694042122A801F08BF800950E940F942B
:1006D800684601F0BBFA4FF4007001F00FFE39B024
:1006E80030BD08B500F086FCFFF7BEFF00F02AF821
:1006F800FFF7E2FEFFF766FFFFF786FFFFF79CFFB5
:1007080003E04FF47A7000F09DFC022211460120AC
:1007180000F026FA0028F4D100F022F8012000F0B9
:100728001FF8EEE74840002301E040080133072B9B
:1007380007DC10F0010FF8D04AF2010282EA5000FB
:10074800F4E7704708B50023034A1370034A13807F
:1007580000F054FA08BD00BF2A020020A4010020BE
:100768003F2803D8034B33F8100070474FF6FF704B
:10077800704700BF380200202DE9F043C1B005469C
:10078800B44B1B788DF800308DF80100042823D86D
:1007980043B21BBB0226172D0FD80122AA40AE4B2D
:1007A800134053B1AD4B1A88731CDBB2110A0DF814
:1007B80006100236F6B20DF803206B1F122B2AD84A
:1007C800DFE803F01E2D2929292929292929396F2C
:1007D8002929292929936F0017280FD1A04B1B8895
:1007E8001A0A8DF802208DF803309E4B1B881A0ACE
:1007F8008DF804208DF805300626CCE70226CAE7D6
:10080800994B1A88731CDBB2110A0DF806100236D0
:10081800F6B20DF803204FF6FF70002481E0934BE9
:100828001A88731CDBB2110A0DF806100236F6B2EC
:100838000DF80320EFE78C4B1988721CD2B20B0A13
:100848000DF80630B31CDBB20DF8021011F0070FDB
:1008580009D0C1F3C7010131C9B20336F6B20DF8A8
:10086800031000230CE0C1F3C701F6E75A08701C17
:100878007E4C14F812200DF80620C6B20133DBB204
:100888008B42C8D213F00102F0D0002AF6D05A08E1
:10089800764830F81220701C120A0DF80620C6B2ED
:1008A800ECE7714B1B88711CC9B21A0A0DF80620B7
:1008B800B21CD2B2DCB20DF801405B000336F6B2CE
:1008C8000DF8023000230DE0684A32F81310721C4C
:1008D800D2B2080A0DF806000236F6B20DF8021078
:1008E8000133DBB2A342EFD395E760490888731C54
:1008F800DBB2020A0DF80620B21CD2B20DF80300D2
:100908004988F31CDBB2080A0DF802000436F6B277
:100918000DF803107FE71DF80410FFF703FF0134FB
:10092800E4B2A642F7D8731CDBB20DF80600023613
:10093800F4B2C0F307200DF8030000260DF8046098
:1009480000F068F92146684600F0AAF900F0B4F909
:1009580080463746082418E006F101095FFA89F94C
:1009680000F090F90DF80600013CE4B24E4614E0A0
:100978009DF802705BE09DF8024000F09DF9A0EB45
:100988000800B0F5FA6F00D9E227002C4FD0002FED
:100998004DD100F047F90028DED1052EEDD19DF8A4
:1009A80000202C4B1B789A4240D19DF8013003F06F
:1009B8007F02AA424CD1DA09DAD1013B162BDCD8E6
:1009C80001A252F823F000BF7F0900087F09000840
:1009D8007F0900087F090008310A0008310A000869
:1009E80083090008830900088309000883090008AF
:1009F800830900088309000883090008830900089F
:100A0800310A0008310A0008830900088309000830
:100A18008309000883090008830900082D0A0008D3
:100A28007F0900083446A8E70324A6E7E0270FB9A2
:100A3800042E2DD8002F3AD19DF80130042B34D83C
:100A4800032B7FD2013BDBB2012B30D83B463DE084
:100A5800E127ECE7A20100206080C100BC02002071
:100A68002802002090010020A0010020A8010020F9
:100A78001DF80410FFF756FE0134E4B2B31E9C4281
:100A8800F6DBC1B21DF803408C4205D0E3270EE027
:100A98003C464FF6FF70F1E7C0F30720721E1DF8C1
:100AA80002308342C6D0E32701E0172B4CD0002345
:100AB800264A1370264A1380264A1370384641B0D6
:100AC800BDE8F083244A13700133DBB29DF802209D
:100AD800B3EB520F0ED23F2BF4D89A1C59000331B6
:100AE8001DF812001DF8012002EB00221B4921F815
:100AF8001320E7E712F0010FD9D03F2B06D85A0090
:100B080003321DF80210154A22F813100133124A55
:100B18001370CCE7104A13700133DBB29DF8022042
:100B2800B3EB520FC3D23F2BF4D85A000332991CAF
:100B38001DF802001DF8112002EB0022074921F8D8
:100B48001320E7E73B46E9E73B46E7E72A020020B0
:100B5800A40100209801002034020020380200205F
:100B680008B5054B1870054B1980054B1A800420F1
:100B7800FFF702FE08BD00BFA201002028020020E6
:100B88009001002001608B1843608160C16002827F
:100B980000238374704703688360C36000238374F1
:100BA800704710B48268531C44689C4207D0C468DC
:100BB8009C4207D0117083605DF8044B7047048A2B
:100BC8001B1BF4E701238374F6E70346C2688168B8
:100BD8008A420AD0511CC16010785A68914200D0EC
:100BE80070471A8A891AD96070470020F8E7826826
:100BF800C068824214BF00200120704708B5C8228F
:100C080002490348FFF7BEFF012008BDC0020020CB
:100C18008803002008B50248FFF7BDFF08BD00BFE4
:100C28008803002008B5074B9B7C012B06D005489C
:100C3800FFF7DDFFB0FA80F0400908BD0148FFF773
:100C4800AAFFF4E78803002008B5014601231A46E5
:100C5800024801F0B8FF00B1012008BD10010020D2
:100C680000B583B00DF10700FFF7EEFF10B103B038
:100C78005DF804FB9DF807100148FFF792FFF6E7BF
:100C88008803002008B50548FFF7B1FF08B1FF2029
:100C980008BD0248FFF799FFFAE700BF8803002064
:100CA80008B50A46FF230146024801F021FF00B1BA
:100CB800012008BD1001002008B500F0BDF908BDED
:100CC8007047FEE7FEE7FEE7FEE7704770477047AC
:100CD80008B501F0D4FB00F0A3F908BD08B5082059
:100CE80001F0CEFA08BD08B5102001F0C9FA08BD18
:100CF80008B5202001F0C4FA402001F0C1FA08BD6F
:100D080008B5024801F0DEFB08BD00BF2C0000203A
:100D180008B5084B1B681B6813F0200F06D1262066
:100D280001F09EFB034801F0CDFB08BDFFF798FFDB
:100D3800F5E700BF1001002008B54FF4806001F00E
:100D48009FFA4FF4005001F09BFA08BD82B00A4B9D
:100D58001A6E42F001021A661A6E02F0010200923F
:100D6800009A9A6D42F080529A659B6D03F0805309
:100D78000193019B02B070470010024000B589B092
:100D88000023039304930593069307930268154B76
:100D98009A4202D009B05DF804FB03F560431A6E6D
:100DA80042F480521A661A6E02F480520192019A35
:100DB800DA6C42F00102DA64DB6C03F0010302939F
:100DC800029BE02303930223049300230593032348
:100DD80006930523079303A94FF0904001F064F9A7
:100DE800D8E700BF0030014030B58BB00023059331
:100DF800069307930893099303682F4A934204D0F4
:100E08002E4A93422DD00BB030BD2D4B1A6E42F4B2
:100E180080421A661A6E02F480420192019ADA6CD4
:100E280042F00102DA64DB6C03F001030293029BD7
:100E38004FF4C06305930224069400250795032305
:100E480008930723099305A94FF0904001F02CF966
:100E58002A462146252001F0ABFA252001F0DCFACC
:100E6800D1E7174B9A6D42F400329A659A6D02F4F5
:100E780000320392039ADA6C42F00102DA64DB6C06
:100E880003F001030493049B0C23059302230693A8
:100E980000250795032408940723099305A94FF013
:100EA800904001F001F92A462146262001F080FAF7
:100EB800262001F0B1FAA6E70038014000440040BE
:100EC8000010024000286AD010B50446436A33B9BE
:100ED8004368B3F5827F05D00023C36102E0002395
:100EE800036143610023A36294F85D30002B4DD069
:100EF800022384F85D302268136823F040031360EE
:100F0800E368B3F5E06F47D90022B3F5706F04D0FA
:100F1800B3F5E06F01D00023A362636803F4827322
:100F2800A16801F404410B43216901F002010B435C
:100F3800616901F001010B43A16901F400710B43E0
:100F4800E16901F038010B43216A01F080010B438C
:100F5800A16A01F4005120680B430360638B03F01E
:100F68000403616A01F010010B43616B01F0080191
:100F78000B43E16801F470610B43216813434B6034
:100F880000202066012384F85D3010BD84F85C30B1
:100F98002046FFF7F3FEABE74FF48052B5E7012098
:100FA80070470000104B1B780BB90120704710B533
:100FB80004464FF47A70B0FBF3F30C4A1068B0FBA8
:100FC800F3F001F037FA68B90F2C01D901200AE0D3
:100FD800002221464FF0FF3001F0EAF9044B1C6073
:100FE800002000E0012010BD0000002008000020C3
:100FF8000400002010B5094A136843F48073136095
:10100800032001F0C3F90020FFF7CCFF10B1012441
:10101800204610BD0446FFF799FEF9E7002002407C
:10102800034B1B78034A11680B441360704700BFD9
:10103800000000209C030020014B1868704700BF87
:101048009C03002038B50446FFF7F6FF0546B4F1C7
:10105800FF3F02D0044B1B781C44FFF7EDFF401BF9
:10106800A042FAD338BD00BF0000002030B583B0DD
:101078000446204B9B6D13F0805F0BD001F036F9CE
:10108800B0F5007F17D0802C1FD82DD0702C2DD014
:1010980000211BE0174DAB6D43F08053AB65AB6D82
:1010A80003F080530193019B01F020F9AB6D23F00D
:1010B8008053AB65E4E7802C03D9A02C03D9022127
:1010C80004E0002102E0012100E003210A4A13683C
:1010D80023F007030B431360136803F007038B42E5
:1010E80006D1002003B030BD0221EFE70121EDE772
:1010F8000120F7E70010024000200240284A9368C8
:10110800D26802F0030213F00C030AD00C2B06D0AD
:10111800042B1FD0082B20D00020024610E0012A03
:10112800F6D11F4A126812F0080F0CD11C4AD2F8E7
:101138009420C2F303221B4951F8222043B1002016
:101148000C2B0DD07047164A1268C2F30312F2E74F
:101158001046F5E714480022F2E714480022EFE7AA
:101168000F4BDB6803F00303022B16D0032B00D1CF
:101178000E4A0B4BD868C0F302100130D968C1F38E
:10118800062102FB01F2B2FBF0F2D868C0F341601D
:1011980001304000B2FBF0F0D4E7034AE9E700BFB2
:1011A80000100240E82E00080024F40000127A0023
:1011B800002800F0FF82F0B583B00446AE4B9D686E
:1011C80005F00C05DE6806F00306036813F0100F3F
:1011D8005AD0E5B10C2D18D0A369002B00F0BB80C4
:1011E800A54A136843F001031360FFF725FF07467C
:1011F800A14B1B6813F0020F40F09A80FFF71CFF09
:10120800C01B0228F4D90320DFE2012EE4D19A4B57
:101218001B6813F0020F03D0A369002B00F0CC82E7
:10122800206A954B1B6813F0080F5BD0924B1B6824
:1012380003F0F00398425CD88F4B1A6842F008021A
:101248001A601A6822F0F002216A0A431A605A6882
:1012580022F47F42E16942EA01225A60002D60D0FF
:10126800FFF74CFF844B9B68C3F30313834AD35C9B
:1012780003F01F03D840824B1860824B1868FFF7B1
:1012880091FE002840F0A182236813F0010F00F0BE
:101298008180082D75D00C2D71D06368B3F5803F1F
:1012A80000F09780B3F5A02F00F09980724B1A6870
:1012B80022F480321A601A6822F480221A60636865
:1012C800002B00F09980FFF7B7FE07466A4B1B68B2
:1012D80013F4003F5ED1FFF7AFFEC01B6428F5D9B9
:1012E800032072E2644BD3F894301B0903F0F00337
:1012F800A0E7FFF7BBFE002840F060825E4B1A684B
:1013080042F008021A601A6822F0F002216A0A43C1
:101318001A605A6822F47F42E16942EA01225A605F
:101328009EE7206AFFF7A2FE002899D001204CE230
:10133800514B1A6842F008021A601A6822F0F0024B
:10134800216A0A431A605A6822F47F42E16942EA34
:1013580001225A6098E7484A136823F00103136092
:10136800FFF76AFE0746444B1B6813F0020F8BD049
:10137800FFF762FEC01B0228F5D9032025E2032EE1
:101388008BD13D4B1B6813F4003F03D06368002BDF
:1013980000F01682236813F0020F4FD0042D3CD0C2
:1013A8000C2D38D0E368002B77D0334A136843F408
:1013B80080731360FFF740FE06462F4B1B6813F43B
:1013C800806F61D1FFF738FE801B0228F5D9032012
:1013D800FBE1294A136843F4803313606FE703F194
:1013E8008043A3F53C331A6842F480221A601A68D5
:1013F80042F480321A6062E7FFF71EFE07461E4B72
:101408001B6813F4003FC5D0FFF716FEC01B642805
:10141800F5D90320D9E1022EC4D1174B1B6813F468
:10142800806F03D0E368002B00F0CC81124A536828
:1014380023F0F853216943EA01635360236813F0EA
:10144800080F55D06369002B3BD00B4AD2F8943073
:1014580043F00103C2F89430FFF7EEFD0646064B51
:10146800D3F8943013F0020F42D1FFF7E5FD801B4B
:101478000228F4D90320A8E100100240D02E000869
:101488000800002004000020B84A536823F0F853ED
:10149800216943EA01635360D0E7B44A136823F42F
:1014A80080731360FFF7C8FD0646B04B1B6813F442
:1014B800806FC3D0FFF7C0FD801B0228F5D9032039
:1014C80083E1AA4AD2F8943023F00103C2F8943099
:1014D800FFF7B2FD0646A54BD3F8943013F0020F80
:1014E80006D0FFF7A9FD801B0228F4D903206CE180
:1014F800236813F0040F7AD09C4B9B6D13F0805F28
:1015080036D19A4B9A6D42F080529A659B6D03F0E2
:1015180080530193019B0126954B1B6813F4807F30
:1015280028D0A368012B39D0052B3FD08F4BD3F897
:10153800902022F00102C3F89020D3F8902022F0E6
:101548000402C3F89020A368002B3DD0FFF774FD78
:101558000746864BD3F8903013F0020F46D1FFF7B9
:101568006BFDC01B41F288339842F2D903202CE16D
:101578000026D1E77E4A136843F480731360FFF7AF
:101588005BFD07467A4B1B6813F4807FC9D1FFF7D0
:1015980053FDC01B0228F5D9032016E1734AD2F87F
:1015A800903043F00103C2F89030CCE76F4BD3F88A
:1015B800902042F00402C3F89020D3F8902042F023
:1015C8000102C3F89020BEE7FFF736FD0746674BD8
:1015D800D3F8903013F0020F08D0FFF72DFDC01B91
:1015E80041F288339842F2D90320EEE06EBBA36A39
:1015F800002B00F0E980022B2DD00C2D00F0EB80A1
:101608005A4B1A6822F080721A601B6813F0205F28
:1016180004D1564AD36823F00303D360534AD368EE
:1016280023F0887323F48033D360FFF705FD044665
:101638004E4B1B6813F0007F00F0BA80FFF7FCFCEC
:10164800001B0228F4D90320BFE0484A936D23F019
:1016580080539365CBE7454BDB6803F00301E26AEF
:1016680091420FD00C2D00F0B280404B1B6813F054
:10167800806F40F0AE803D4B1B6813F0805F2DD02B
:101688000120A2E003F07002216B0139B2EB011FC7
:10169800E8D103F4FE42616BB2EB012FE2D103F40F
:1016A8000031A26B073A18BF01229142DAD103F444
:1016B800C001E26B5208013AB1EB425FD2D103F0AC
:1016C800C063226C5208013AB3EB426FCAD1274B70
:1016D8001B6813F0007F51D0002076E0234A13687E
:1016E80023F080731360FFF7A7FC05461F4B1B68A8
:1016F80013F0007F06D0FFF79FFC401B0228F5D9A6
:10170800032062E0194AD3681A491940E36A206B3A
:10171800013843EA0013606B43EA0023E06B40089A
:10172800013843EA4053206C4008013843EA4063DB
:10173800A06B000943EA40430B43D360136843F0AE
:1017480080731360D36843F08073D360FFF774FC31
:101758000446064B1B6813F0007F0DD1FFF76CFCA5
:10176800001B0228F5D903202FE000BF001002401B
:10177800007000408C809DF9002026E0174B1A6805
:1017880042F080721A60DA6842F08072DA60FFF71D
:1017980053FC0446114B1B6813F0007F06D1FFF77A
:1017A8004BFC031B022BF5D903200EE000200CE0B4
:1017B80000200AE001207047012006E0012004E033
:1017C800012002E0012000E0002003B0F0BD01206C
:1017D800FBE70120F9E70120F7E700BF001002400E
:1017E800002800F0988070B50C4605464E4B1B68E3
:1017F80003F007038B420BD24B4A136823F007030D
:101808000B431360136803F007038B4240F0858095
:101818002B6813F0010F39D06B68032B09D0022B0A
:1018280026D063BB414A126812F0020F06D101208C
:1018380070E03E4A126812F0007F70D03B498A6817
:1018480022F0030213438B60FFF7F6FB0646374B83
:101858009B6803F00C036A68B3EB820F16D0FFF79E
:10186800EBFB801B41F288339842F0D9032051E00A
:101878002E4A126812F4003FE0D101204AE02B4AB8
:10188800126812F4806FD9D1012043E02B6813F05D
:10189800020F06D0254A936823F0F003A9680B438A
:1018A8009360214B1B6803F00703A3420AD91E4A21
:1018B800136823F0070323431360136803F0070337
:1018C800A3422ED12B6813F0040F06D0174A936851
:1018D80023F4E063E9680B4393602B6813F0080F67
:1018E80007D0124A936823F46053296943EAC10375
:1018F8009360FFF703FC0D4B9B68C3F303130C4A7B
:10190800D35C03F01F03D8400A4B18600A4B1868D1
:10191800FFF748FB70BD012070470120FAE701205E
:10192800F8E70120F6E700BF00200240001002405F
:10193800D02E00080800002004000020014B186881
:10194800704700BF0800002008B5FFF7F7FF054BF8
:101958009B68C3F30223044AD35C03F01F03D840F7
:1019680008BD00BF00100240E02E000808B5FFF7D0
:10197800E5FF054B9B68C3F3C223044AD35C03F01D
:101988001F03D84008BD00BF00100240E02E000829
:10199800F8B504460F46594BDB6813F0030F18D00F
:1019A800564BDB6803F003030268934202D001251B
:1019B8002846F8BD002A00F09E80504BDB68C3F330
:1019C800021301334268934201D00125F0E7002554
:1019D80009E00368022B57D0032B5CD0012B42D0BF
:1019E8000125002DE4D1454A136823F08063136074
:1019F800FFF722FB0646414B1B6813F0006F05D02A
:101A0800FFF71AFB831B022BF5D90325002DCFD135
:101A1800002F4ED139490B6923F41F3323F4407347
:101A2800A068E2681209520442EA002213430B61DB
:101A3800324A136843F080631360FFF7FDFA0646E5
:101A48002E4B1B6813F0006F05D1FFF7F5FA831BC7
:101A5800022BF5D90325002DAAD1284A1369A169BB
:101A68000B431361A4E7254A126812F0020F1ED037
:101A78002248C26822F073026168013943EA0113FF
:101A88001343C3600025ACE71C4A126812F4806F48
:101A9800EED10125A5E7194A126812F4003FE7D1F3
:101AA800164A126812F4802FE2D1012599E7012520
:101AB80097E7012F0FD01148026922F0C06222F483
:101AC800FE42A16863695B08013B5B0643EA0123A8
:101AD80013430361ACE70948026922F4C00222F407
:101AE800FE42A16823695B08013B5B0543EA0123C9
:101AF800134303619CE701255AE700BF0010024029
:101B0800F8B504460F46504BDB6813F0030F18D0A6
:101B18004D4BDB6803F003030268934202D00125B2
:101B28002846F8BD002A00F08C80474BDB68C3F3D9
:101B3800021301334268934201D00125F0E70025E2
:101B480009E00368022B57D0032B5CD0012B42D04D
:101B58000125002DE4D13C4A136823F0805313601B
:101B6800FFF76AFA0646384B1B6813F0005F05D08A
:101B7800FFF762FA831B022BF5D90325002DCFD17D
:101B8800002F4ED130494B6923F41F3323F440739F
:101B9800A068E2681209520442EA002213434B612A
:101BA800294A136843F080531360FFF745FA064645
:101BB800254B1B6813F0005F05D1FFF73DFA831B27
:101BC800022BF5D90325002DAAD11F4A5369616953
:101BD8000B435361A4E71C4A126812F0020F1ED08F
:101BE8001948C26822F073026168013943EA011397
:101BF8001343C3600025ACE7134A126812F4806FE0
:101C0800EED10125A5E7104A126812F4003FE7D18A
:101C18000D4A126812F4802FE2D1012599E70125B7
:101C280097E70948426922F0C06222F4FE42A1689F
:101C380023695B08013B5B0643EA012313434361C5
:101C4800AEE701256CE700BF001002402DE9F04126
:101C580082B00446036813F4006F33D0436EB3F5C3
:101C6800000F1FD00CD823B3B3F5800F05D1002186
:101C78002030FFF745FF064620E001273E4623E0D7
:101C8800B3F5400F0BD10026624AD2F8883023F40E
:101C98004003616E0B43C2F88830002714E0012727
:101CA8003E4611E05B4AD36843F48033D360002694
:101CB800EAE700210430FFF76BFE0646002EE3D06A
:101CC800374601E000273E46236813F4805F21D0A1
:101CD800A36EB3F1007F79D00ED8002B7CD0B3F17E
:101CE800807F06D1002104F12000FFF709FF064696
:101CF80005E001273E460DE0B3F1407F63D1002E99
:101D080070D1444AD2F8883023F04073A16E0B4357
:101D1800C2F88830236813F4003F00F084803D4BFC
:101D28009B6D13F0805F5FD13A4B9A6D42F0805201
:101D38009A659B6D03F080530193019B4FF0010856
:101D4800354A136843F480731360FFF775F9054645
:101D5800314B1B6813F4807F05D1FFF76DF9401BE9
:101D68000228F5D90326002E58D12A4BD3F89030F3
:101D780013F4407316D0D4F884209A4212D0254A1E
:101D8800D2F8903023F44073D2F8901041F48031A7
:101D9800C2F89010D2F8901021F48031C2F8901057
:101DA800C2F8903013F0010F21D1002E40F0398194
:101DB800184AD2F8903023F44073D4F884100B43B7
:101DC800C2F890302BE001273E46A3E7114AD368BA
:101DD80043F48033D36092E70021201DFFF7D8FD3C
:101DE80006468CE7374695E74FF00008A8E7FFF767
:101DF80023F90546074BD3F8903013F0020FD4D1DE
:101E0800FFF71AF9401B41F288339842F2D90326AA
:101E1800CBE700BF00100240007000403746B8F121
:101E2800000F40F00081236813F0010F08D09D4A8D
:101E3800D2F8883023F00303A16B0B43C2F8883033
:101E4800236813F0020F08D0964AD2F8883023F09E
:101E58000C03E16B0B43C2F88830236813F0040FBE
:101E680008D0904AD2F8883023F03003216C0B4315
:101E7800C2F88830236813F0080F08D0894AD2F8CE
:101E8800883023F0C003616C0B43C2F888302368A4
:101E980013F0100F08D0834AD2F8883023F4407327
:101EA800A16C0B43C2F88830236813F0200F08D0C8
:101EB8007C4AD2F8883023F44063E16C0B43C2F8C3
:101EC8008830236813F4007F08D0764AD2F8883027
:101ED80023F44023E16D0B43C2F88830236813F4E0
:101EE800806F08D06F4AD2F8883023F44013216EEF
:101EF8000B43C2F88830236813F0400F08D0694AB2
:101F0800D2F8883023F44053216D0B43C2F888304F
:101F1800236813F0800F08D0624AD2F8883023F47F
:101F28004043616D0B43C2F88830236813F4807F07
:101F380008D05C4AD2F8883023F44033A16D0B43B3
:101F4800C2F88830236813F4005F0FD0554AD2F8DE
:101F5800883023F04063E16E0B43C2F88830E36EAB
:101F6800B3F1006F65D0B3F1806F67D0236813F4C5
:101F7800002F0FD04B4AD2F8883023F04063216FEE
:101F88000B43C2F88830236FB3F1006F5ED0B3F112
:101F9800806F60D0236813F4802F0FD0414AD2F8A5
:101FA800883023F04063616F0B43C2F88830636F59
:101FB800B3F1006F57D0B3F1806F59D0236813F491
:101FC800804F0FD0374AD2F8883023F04053A16FA2
:101FD8000B43C2F88830A36FB3F1805F50D0B3F1E0
:101FE800005F55D0236813F4004F08D02D4AD2F86B
:101FF800883023F08043E16F0B43C2F888302368B0
:1020080013F4803F09D0274AD2F8883023F00043E0
:10201800D4F880100B43C2F88830384602B0BDE8C7
:10202800F0813746FBE61F4A936D23F08053936592
:10203800F9E6D36843F48013D36097E70121201DA4
:10204800FFF7A6FC002891D007468FE7D36843F432
:102058008013D3609EE70121201DFFF799FC00281B
:1020680098D0074696E7D36843F48013D360A5E772
:102078000121201DFFF78CFC00289FD007469DE713
:102088000221201DFFF784FC0028ABD00746A9E7F2
:10209800022104F12000FFF733FD0028A2D00746F3
:1020A800A0E700BF00100240F0B583B000233FE076
:1020B800C66A26EA0406C5F3C0049C403443C462D9
:1020C8005FE0062400E00024B4403C430235654E3E
:1020D80046F82540644C2568D44325EA02064F6833
:1020E80017F4803F01D042EA05065F4D2E606D6807
:1020F80004EA05064F6817F4003F01D042EA0506D6
:10210800594D6E60AD6804EA05064F6817F4801FE4
:1021180001D042EA0506544DAE60ED682C404E6889
:1021280016F4001F01D042EA05044F4AD460013377
:102138000A6832FA03F400F0928001249C4022409D
:10214800F5D04D686E1E012E03D9112D01D0122D28
:1021580012D186685F000325BD4026EA0506CD68D2
:10216800BD4035438560466826EA04064D68C5F3D8
:1021780000159D40354345604D6805F00306032E64
:1021880096D0C7685E000325B540EC4327EA0507EB
:102198008D68B5403D43C5604D68022D01D0122DB4
:1021A80013D1DF08083750F827E003F007054FEA96
:1021B800850C0F2505FA0CF52EEA050E0D6905FAB2
:1021C8000CF545EA0E0540F82750056825404C688F
:1021D80004F00304B4402C4304604C6814F0805F9E
:1021E800A5D0224C256E45F001052566246E04F025
:1021F80001040194019C9D08AE1C1A4C54F82670E9
:1022080003F00304A6000F24B44027EA0407B0F142
:10221800904F3FF458AF164CA04216D004F5806496
:10222800A04214D004F58064A04212D004F5806462
:10223800A04210D004F58064A0420ED004F580645A
:10224800A0423FF43EAF07243EE701243CE70224C6
:102258003AE7032438E7042436E7052434E703B0D3
:10226800F0BD00BF00000140000401400010024022
:10227800000400480AB18161704781627047704765
:1022880008B5054B5B69034200D108BD024B586194
:10229800FFF7F5FFF9E700BF0004014008B590F823
:1022A8002530DBB2022B03D00423C363012008BD11
:1022B8000268136823F00E0313600268136823F0A2
:1022C80001031360436C03F01C03016C012202FA42
:1022D80003F34B6080F82520002380F82430836BBB
:1022E80013B198470020E2E70020E0E7024B1868A6
:1022F80000F4C060704700BF00700040B0F5007F78
:102308000FD01F4B1B6803F4C063B3F5806F34D044
:102318001B4A136823F4C06343F4806313600020EE
:102328007047174B1B6803F4C063B3F5007F20D0D8
:10233800134A136823F4C06343F400731360114B0A
:102348001A68322303FB02F30F4AA2FB03239B0CF8
:10235800013300E0013B0A4A526912F4806F01D050
:10236800002BF7D1064B5B6913F4806F03D1002073
:10237800704700207047032070470020704700BF57
:10238800007000400800002083DE1B43074AD36822
:1023980023F4E0631B041B0C000200F4E060034319
:1023A80043F0BF6343F40033D360704700ED00E0AF
:1023B80030B4174BDB68C3F30223C3F10704042CC2
:1023C80028BF04241D1D062D18D9033B4FF0FF35E7
:1023D80005FA04F421EA0401994005FA03F322EA14
:1023E8000303194300280BDB0901C9B200F160405F
:1023F80000F5614080F8001330BC70470023E5E722
:1024080000F00F000901C9B2024B1954F4E700BFEC
:1024180000ED00E014ED00E0002807DB00F01F02EB
:10242800400901239340024A42F82030704700BF18
:1024380000E100E00138B0F1807F0AD2064B586015
:10244800064AF02182F823100020986007221A60BB
:1024580070470120704700BF10E000E000ED00E089
:10246800002808DB00F01F02400901239340603078
:10247800014A42F82030704700E100E0704708B593
:10248800FFF7FCFF08BD0268136823F4907313601C
:102498000268936823F00103936020238367002375
:1024A80003667047704708B501680A6822F0400261
:1024B8000A602022426700224266FFF7F3FF08BD48
:1024C8007047000070B504460168CB6908688D68DC
:1024D80040F60F021A4005D113F0200F02D010F079
:1024E800200F1CD12AB115F001021ED1544E3042E2
:1024F8001BD113F4801F03D015F4800F40F08E8099
:1025080013F0800F03D010F0800F40F08E8013F08E
:10251800400F03D010F0400F40F08E8070BD236E46
:10252800002BFBD020469847F8E713F0010F07D09F
:1025380010F4807F04D001250D62E16F2943E16723
:1025480013F0020F07D032B1216802250D62E16F46
:1025580041F00401E16713F0040F07D032B121689C
:1025680004250D62E16F41F00201E16713F0080FE5
:1025780009D010F0200F00D12AB122680821116279
:10258800E26F0A43E26713F4006F0AD010F0806F1D
:1025980007D022684FF400611162E26F42F0200216
:1025A800E267E26F002AB9D013F0200F06D010F0CE
:1025B800200F03D0236E0BB120469847E26F2368A3
:1025C8009B6813F0400F02D112F0280F20D020464C
:1025D800FFF759FF23689A6812F0400F14D09A68E1
:1025E80022F040029A60E36E53B1164A9A63E06E95
:1025F800FFF754FE002891D0E06E836B98478DE773
:102608002046FFF75DFF89E72046FFF759FF85E77A
:102618002046FFF755FF0023E3677FE74FF4801359
:102628000B62204600F0C6FB78E7636E002B3FF490
:1026380075AF2046984771E72046FFF734FF6DE7EE
:10264800200100045126000808B5806A0023A0F87C
:102658005A30A0F85230FFF733FF08BDD0B5044612
:10266800016883680269134342691343C2691343CB
:1026780008689B4A024013430B602268536823F49E
:102688004053E1680B435360A1692268954B9A4215
:1026980001D0236A1943936823F430630B43936092
:1026A8002268914B9A4210D0904B9A4221D0904B7D
:1026B8009A4237D08F4B9A425CD08F4B9A426BD05C
:1026C800884B9A427DD010233AE003F55843D3F85B
:1026D800883003F00303032B09D8DFE803F0020472
:1026E800870601232CE004232AE0082328E010238E
:1026F80026E003F5E633D3F8883003F00C030C2BFF
:102708000ED8DFE803F0070D0D0D090D0D0D750D41
:102718000D0D0B00002313E0042311E008230FE044
:1027280010230DE003F5E433D3F8883003F03003C9
:10273800202B5FD01AD8002B5ED0102B5ED104233B
:1027480068498A4276D0E069B0F5004F00F0A2806F
:10275800082B00F20E81DFE813F0DD00F300DB0048
:102768000C01F6000C010C010C01F900302B47D1CB
:102778000823E5E703F5E233D3F8883003F0C00314
:10278800802B3FD004D8FBB3402B3FD10423D7E79D
:10279800C02B3DD10823D3E703F5E033D3F88830C5
:1027A80003F44073B3F5007F34D005D8A3B3B3F571
:1027B800807F33D10423C3E7B3F5407F30D10823AA
:1027C800BEE703F5C833D3F8883003F44063B3F5A4
:1027D800006F27D005D83BB3B3F5806F26D104230B
:1027E800AEE7B3F5406F23D10823A9E70223A7E793
:1027F8000223A5E70223A3E70023A1E710239FE70D
:1028080010239DE702239BE7002399E7102397E70E
:10281800102395E7022393E7002391E710238FE71E
:1028280010238DE702238BE7002389E7102387E72E
:10283800102385E7082B00F28C80DFE803F0088A74
:10284800298A268A8A8A05004FF4004003E0FFF7A8
:102858007BF800287FD0626802EB420383427CD871
:10286800B0EB023F7BD80023070E06025008301851
:1028780047F10001FDF7A4FCA0F540721F4B9A42F6
:102888006FD82368D860002056E0FEF737FCE0E7F1
:102898001B48E0E7082B66D8DFE803F00734056536
:1028A800376565650B00164803E0FFF74DF800280B
:1028B8005BD06268530803EB4000B0FBF2F080B2D3
:1028C800A0F110024FF6EF739A4250D820F00F0390
:1028D800C0F3420018432368D86000202CE000BFF2
:1028E800F369FFEF008000400038014000440040D9
:1028F80000480040004C004000500040FFFC0F0022
:102908000024F400FFF732F8D1E7FEF7F7FBCEE733
:102918001B4802E0FFF718F868B3636800EB530040
:10292800B0FBF3F080B2A0F110024FF6EF739A42B9
:1029380023D82368D8600020002323666366D0BDAF
:10294800FFF714F8E8E7FEF7D9FBE5E74FF4004096
:10295800E3E70120F0E70020EEE70120ECE70120A3
:10296800EAE70120E8E70120E6E70020E4E70120A4
:10297800E2E70120E0E70020DEE70120DCE700BF16
:102988000024F400436A13F0010F06D0026853686C
:1029980023F40033816A0B435360436A13F0020F38
:1029A80006D00268536823F48033C16A0B4353602E
:1029B800436A13F0040F06D00268536823F4802397
:1029C800016B0B435360436A13F0080F06D002688B
:1029D800536823F40043416B0B435360436A13F07D
:1029E800100F06D00268936823F48053816B0B4361
:1029F8009360436A13F0200F06D00268936823F4AB
:102A08000053C16B0B439360436A13F0400F0AD025
:102A18000268536823F48013016C0B435360036C02
:102A2800B3F5801F0BD0436A13F0800F06D00268FD
:102A3800536823F40023816C0B435360704702688A
:102A4800536823F4C003416C0B435360EBE72DE953
:102A5800F84305460F4616469946DDF820802C684F
:102A6800E46937EA04030CBF01240024B4423CD1D2
:102A7800B8F1FF3FF3D0FEF7DFFAA0EB09004045BD
:102A880021D8B8F1000F1ED02B681A6812F0040F75
:102A9800E5D0DA6912F4006FE1D04FF400621A62EF
:102AA8002A68136823F4D07313602A68936823F0A4
:102AB8000103936020236B67AB67EB67002385F8FE
:102AC8007030032012E02A68136823F4D07313606F
:102AD8002A68936823F00103936020236B67AB6730
:102AE800002385F87030032000E00020BDE8F8835B
:102AF8002DE9F04182B01E46436F202B55D1044684
:102B08000D469046002954D0002A54D090F87030D1
:102B1800012B52D0012380F870300023C367212392
:102B28004367FEF789FA0746A4F85080A4F8528054
:102B3800A368B3F5805F05D04FF00008002384F840
:102B4800703014E0236913B14FF00008F6E7A84687
:102B58000025F3E738F8023B2268C3F3080313851E
:102B6800B4F8522092B2013A92B2A4F85220B4F8C2
:102B780052309BB273B100963B460022802120461A
:102B8800FFF765FFD8B9002DE4D0236815F8012BAD
:102B98001A85E5E700963B46002240212046FFF7CC
:102BA80056FF70B92023636700E0022002B0BDE839
:102BB800F0810120FAE70120F8E70220F6E7032078
:102BC800F4E70320F2E72DE9F04383B01E46836F54
:102BD800202B7CD104460D46904600297BD0002A44
:102BE8007BD090F87030012B79D0012380F87030B9
:102BF8000023C36722238367FEF71EFA0746A4F85B
:102C08005880A4F85A80A368B3F5805F06D0A3B9AA
:102C1800226972B9FF22A4F85C2014E0226922B963
:102C280040F2FF12A4F85C200DE0FF22A4F85C201B
:102C380009E07F22A4F85C2005E0B3F1805F0DD0A5
:102C48000022A4F85C20B4F85C80B3F5805F0FD054
:102C58004FF00009002384F870301EE022691AB989
:102C68007F22A4F85C20EEE73F22A4F85C20EAE784
:102C7800236913B14FF00009ECE7A9460025E9E7FD
:102C880023689B8C08EA030329F8023BB4F85A200E
:102C980092B2013A92B2A4F85A20B4F85A309BB2D0
:102CA8008BB100963B46002220212046FFF7CFFE3D
:102CB800B8B9002DE4D023689A8C5FFA88F31340E2
:102CC80005F8013BE2E72023A367002000E002208B
:102CD80003B0BDE8F0830120FAE70120F8E70220FD
:102CE800F6E70320F4E730B583B004460023C36752
:102CF800FEF7A2F9054623681B6813F0080F0CD1EC
:102D080023681B6813F0040F15D120236367A3679A
:102D1800002084F8700003B030BD6FF07E4300934C
:102D2800034600224FF400112046FFF790FE0028CA
:102D3800E6D00320EFE76FF07E4300932B46002296
:102D48004FF480012046FFF782FE0028DDD00320E3
:102D5800E1E768B310B50446436F03B32423636700
:102D68002268136823F0010313602046FFF776FCFE
:102D7800012813D0636ABBB92268536823F49043CF
:102D880053602268936823F02A03936022681368CB
:102D980043F0010313602046FFF7A5FF10BD80F83C
:102DA8007030FEF721F8D9E72046FFF7EBFDE3E79F
:102DB80001207047704700000F49D1F8883043F46C
:102DC8007003C1F888300D4B1A6842F001021A608E
:102DD800002098601A6822F0A85222F410221A6083
:102DE8004FF48052DA601A6822F480221A609861DF
:102DF8004FF000638B60704700ED00E00010024068
:102E0800DFF834D0002103E00C4B5B584350043109
:102E18000B480C4B42189A42F6D30B4A02E00023A7
:102E280042F8043B094B9A42F9D3FFF7C5FF00F07B
:102E380011F8FDF756FCFEE700800120302F00084E
:102E4800000000201000002010000020A003002037
:102E5800FEE7000070B50D4D0D4C641BA410002654
:102E6800A64209D10B4D0C4C00F020F8641BA410AD
:102E78000026A64205D170BD55F8043B9847013697
:102E8800EEE755F8043B98470136F2E7202F000893
:102E9800202F0008202F0008242F00080244034692
:102EA800934200D1704703F8011BF9E7F8B500BF5A
:102EB800F8BC08BC9E467047F8B500BFF8BC08BC13
:082EC8009E4670470000000067
:102ED00000000000000000000102030406070809CA
:102EE0000000000001020304A0860100400D030061
:102EF000801A060000350C0040420F0080841E003E
:102F000000093D0000127A000024F40000366E0132
:082F10000048E801006CDC023E
:082F1800E0D2FF7F0100000080
:082F2000AD01000800000000F3
:082F280089010008000000000F
:102F3000010000001000000000093D00000000003A
:0400000508002E09B8
:00000001FF
