:020000040800F2
:100000000080012071310008930E0008950E000851
:10001000970E0008990E00089B0E000800000000D3
:100020000000000000000000000000009D0E00081D
:100030009F0E000800000000A10E0008A30E00089B
:10004000C1310008C1310008C1310008C1310008C8
:10005000C1310008C1310008C1310008C1310008B8
:10006000C1310008AF0E0008B90E0008C131000808
:10007000C1310008C1310008C1310008C131000898
:10008000C1310008C1310008C1310008C131000888
:10009000C1310008C1310008C1310008C30E000899
:1000A000C1310008C1310008C1310008C131000868
:1000B000C1310008C1310008C1310008C131000858
:1000C000C1310008C1310008C1310008C131000848
:1000D000C1310008D50E0008E50E0008C131000846
:1000E0000D0F0008C1310008C1310008C1310008FE
:1000F000C1310008C1310008C1310008C131000818
:10010000C1310008C1310008C1310008C131000807
:10011000C1310008C1310008C1310008C1310008F7
:10012000C1310008C1310008C1310008C1310008E7
:10013000C1310008C1310008C1310008C1310008D7
:10014000C1310008C1310008C1310008C1310008C7
:10015000C1310008C1310008C1310008C1310008B7
:10016000C1310008C1310008C1310008C1310008A7
:10017000C1310008C1310008C13100080000000091
:08018000C1310008C131000883
:1001900010B5054C237833B9044B13B10448AFF3C1
:1001A00000800123237010BD7000002000000000BB
:1001B0007843000808B5034B1BB103490348AFF36C
:1001C000008008BD00000000740000207843000893
:1001D000034613F8012B002AFBD1181A0138704787
:1001E00001F0FF01102A2BDB10F0070F08D010F8E8
:1001F000013B013A8B422DD010F0070F42B3F6D1EC
:10020000F0B441EA012141EA014122F007047FF004
:1002100000070023F0E80256083C85EA010586EA5B
:10022000010685FA47F5A3FA87F586FA47F6A5FA97
:1002300087F68EB9EED1F0BC01F0FF0102F00702A3
:1002400032B110F8013B013A83EA010313B1F8D14E
:100250000020704701387047002D06BF354603382F
:10026000073815F0010F07D1013015F4807F02BF68
:10027000013015F4C03F0130F0BC0138704700BFB9
:1002800053B94AB9002908BF00281CBF4FF0FF31FD
:100290004FF0FF3000F06EB9ADF1080C6DE904CEFF
:1002A00000F006F8DDF804E0DDE9022304B0704751
:1002B0002DE9F047089D04468C46002B40F08380D2
:1002C0008A42174647D9B2FA82F242B1C2F12000FF
:1002D00024FA00F09140974040EA010C94404FEA24
:1002E0001748230CBCFBF8F61FFA87FE08FB16C163
:1002F00043EA014306FB0EF1994209D9FB1806F1C6
:10030000FF3080F01981994240F21681023E3B4451
:100310005B1AA4B2B3FBF8F008FB103344EA0344C1
:1003200000FB0EFEA64509D93C1900F1FF3380F011
:100330000581A64540F2028102383C4440EA06406D
:10034000A4EB0E0400261DB1D4400023C5E90043F0
:100350003146BDE8F08702B9FFDEB2FA82F2002A28
:1003600050D1CB1B4FEA174E1FFA87F80126B3FB7B
:10037000FEFC210C0EFB1C3341EA034108FB0CF38D
:100380008B4207D979180CF1FF3002D28B4200F270
:10039000E9808446C91AA3B2B1FBFEF00EFB10112E
:1003A00043EA014408FB00F8A04507D93C1900F1D5
:1003B000FF3302D2A04500F2D9801846A4EB08040E
:1003C00040EA0C40BFE78B4209D9002D00F0B18014
:1003D0000026C5E9000130463146BDE8F087B3FA92
:1003E00083F6002E4AD18B4202D3824200F2B880BB
:1003F000841A61EB030101208C46002DA8D0C5E9C9
:10040000004CA5E7C2F1200320FA03F6974001FA59
:1004100002F04FEA174ED9403043030CB1FBFEF611
:100420001FFA87F80EFB161143EA014306FB08F199
:10043000994204FA02F409D9FB1806F1FF3C80F056
:100440008D80994240F28A80023E3B445B1A81B221
:10045000B3FBFEF00EFB103341EA034100FB08F34F
:100460008B4207D9791800F1FF3C73D28B4271D9C6
:1004700002383944CB1A40EA064678E7C6F1200C28
:1004800003FA06F422FA0CF31C4320FA0CF701FAE3
:1004900006F34FEA144E21FA0CF11F433B0CB1FB5B
:1004A000FEF91FFA84F80EFB191143EA014109FB1A
:1004B00008FA8A4502FA06F200FA06F308D961182A
:1004C00009F1FF3048D28A4546D9A9F102092144F1
:1004D000A1EB0A01BFB2B1FBFEF00EFB101147EA1F
:1004E000014700FB08F8B84507D9E71900F1FF31CB
:1004F0002ED2B8452CD90238274440EA0940A7EB50
:100500000807A0FB02894F45C64649461AD317D0B3
:100510005DB1B3EB0E0267EB010707FA0CFCF2408A
:100520004CEA0202F740C5E9002700263146BDE843
:10053000F0872E4628460BE70646E9E61846FDE614
:100540004345E5D2B8EB020E69EB04010138DFE761
:100550000846D2E760468DE78146B9E7664675E70B
:1005600030464AE7ACF1020C394413E702383C4408
:1005700024E700BF704700BF70B588B00024039423
:100580000494059406940794394BDA6C42F0040203
:10059000DA64DA6C02F004020092009ADA6C42F03B
:1005A0000102DA64DA6C02F001020192019ADA6C5B
:1005B00042F00202DA64DB6C03F002030293029B56
:1005C0002C4E01220321304601F03EFF012240F271
:1005D00013114FF0904001F037FF4FF40053039395
:1005E000254B0493059403A9304601F047FE0323ED
:1005F0000393012504950594069403A9304601F060
:100600003DFE40F21313039304950594069403A949
:100610004FF0904001F032FE4FF48F630393174B7D
:100620000493059503A9164801F028FE22462946A1
:10063000092001F0A7FF092001F0D8FF2246294632
:100640000A2001F09FFF0A2001F0D0FF2246294630
:10065000172001F097FF172001F0C8FF2246294616
:10066000282001F08FFF282001F0C0FF08B070BDE6
:100670000010024000080048000021100000111086
:100680000004004808B50E480E4B03604FF4827317
:100690004360002383604FF4E062C2600361436102
:1006A0004FF4007282613022C2610362436283624E
:1006B0000722C26203630823436300F0EDFC08BD18
:1006C000B40600200030014008B50948094B03601A
:1006D0004FF4E133436000238360C36003610C2265
:1006E00042618361C3610362436202F0EAFC08BDB8
:1006F000340600200038014008B50948094B036062
:100700004FF4E133436000238360C36003610C2234
:1007100042618361C3610362436202F0D2FC08BD9F
:10072000180700200044004082B00190019B1BB1DB
:10073000019B013B0193F9E702B0704710B582B00D
:10074000074A084C00944123911E101F00F075FBCE
:1007500001222146044801F08FFF02B010BD00BF06
:10076000A8090020200600201807002030B5B9B0E5
:100770002422002128A802F065FD0024229423945D
:1007800024942594269488222146684602F05AFD36
:10079000022327934FF480722A9210222B923193D6
:1007A0003293012233920A223492072235923693F1
:1007B000379327A800F0E6FD0F2322930325239506
:1007C000249425942694042122A801F0F3F800959E
:1007D0000E940F94684601F023FB4FF4007001F073
:1007E00077FE39B030BD000008B500F0EDFCFFF732
:1007F000BDFF00F02DF8FFF7BFFEFFF743FFFFF747
:1008000063FFFFF779FF01220649074801F034FF33
:100810004FF4E13000F080FA00F0F2FA642000F0CA
:10082000FBFCF9E7200600201807002000B583B084
:100830008DF807004FF47A7301220DF10701034888
:1008400002F00EFB03B05DF804FB00BF18070020A8
:1008500008B50023034A1370034A138000F024F8FC
:1008600008BD00BF32080020AC07002001608B18D3
:1008700043608160C160028200238374704710B4BA
:100880008268531C44689C4207D0C4689C4207D0CD
:10089000117083605DF8044B7047048A1B1BF4E7FA
:1008A00001238374F6E7000008B5C8220249034813
:1008B000FFF7DCFF012008BDC808002090090020D8
:1008C00008B5014601231A46024802F034FB00B184
:1008D000012008BD1807002000B583B00DF1070006
:1008E000FFF7EEFF10B103B05DF804FB9DF80710B1
:1008F0000148FFF7C4FFF6E790090020174B93F873
:10090000003543B301280ED0144B93F80235012B68
:1009100003D9013B114A82F80235104B93F80205C6
:1009200093F801350CE00D4A92F802259342F4D970
:1009300001320A4B83F80225EFE709230138C0B2E0
:1009400020B1002BF9D0013BDBB2F7E7034A02EB01
:10095000C3130B6070470120704700BF10010020D7
:1009600008B5104802F076FC2E2002F08BFC0E4CED
:100970002046FFF7D9FE2E2002F084FC2046FFF728
:10098000D3FE2E2002F07EFCBFF34F8F0749CA68CA
:1009900002F4E062064B1343CB60BFF34F8F00BFFE
:1009A000FDE700BF90430008FFFF8F0000ED00E06F
:1009B0000400FA0508B5024802F0E8FC012008BD71
:1009C000AC43000808B5024802F0E0FC002008BD76
:1009D000D4430008F8B5204B93F80165B8B105463B
:1009E000FFF7F6FB83B27F2B11D816B1731EDBB273
:1009F00000E0092384B222462946174800EBC310C1
:100A000002F004FC20B9144B002283F80225F8BD43
:100A1000114F8022002107EBC61002F013FC97F85B
:100A200001052246294607EBC01002F0FDFB97F8AE
:100A30000035092B02D8013387F80035064A92F8B1
:100A400001350133DBB282F80135092BDBD91346BE
:100A5000002283F80125D6E7100100202DE9F0419E
:100A600084B004469B4B93F8805003E00133994ACD
:100A700082F88030974A92F8801092F98020002AFC
:100A800052DB944B0B4400934123221DA11C2046B2
:100A900000F0E9F9012815D18E4A92F88030D25C35
:100AA000082AE3D1002BE5D001218B4802F0D2FBCC
:100AB0008A4802F0CFFB874A92F88030013B82F8E7
:100AC0008030D7E700230393824B93F88040022CB9
:100AD00025D98349184602F073FC002839D02146F5
:100AE0007D4802F0B7FB7D4802F0B4FB03A901206A
:100AF000FFF704FF012400284DD0012800D06CB17D
:100B0000744E96F88010744802F0A4FB734802F00B
:100B1000A1FB81220021304602F094FB24B96D4BE9
:100B200093F88030AB4254D86A4B93F88030012B55
:100B30005BD0012B04D9013B664AD25C0D2A5DD003
:100B4000644B93F98030002BC0F2BE8004B0BDE846
:100B5000F08164495F4802F033FC60B121465E4891
:100B600002F078FB5D4802F075FB03A90020FFF757
:100B7000C5FE0224BFE75C49564802F021FC10B1D3
:100B8000FF200324B7E75949524802F019FCF0B19D
:100B9000FF200424AFE74F4E81220021304602F0AF
:100BA00051FB039F3846FFF713FB02463946304698
:100BB00002F03AFB3846FFF70BFBC3B286F88030F1
:100BC0000022F25431464A4802F044FBA6E70024D2
:100BD000A4E7404B93F88030AB42A5D93D4B585D1C
:100BE000FFF724FE0135EDB2F3E75A1E39498A5C5E
:100BF0000D2A9ED1002281F88020A1E70024354AE9
:100C0000D4543C4802F0C2FBA04615E0314B93F8A7
:100C1000802000219954384802F0B8FB0AE0374898
:100C200002F0B4FB364B03EB0417786802F012FBBA
:100C30004FF001080134E4B2012C39D82301304AC5
:100C4000D6583046FFF7C4FA0546024631462148D9
:100C500002F0A4FB0028EDD11E4B93F88020E9B2EE
:100C6000521AD6B21D44264B03EB0413D3F80C8062
:100C7000B8F1000F16D0234802F088FB3146284611
:100C8000C0470028CBD0204802F080FB1148FFF776
:100C9000A1FE1E4B93F80080B8F1010FB6D04FF0C3
:100CA0000108C7E71A4802F071FB4FF00108C1E7DD
:100CB000B8F1000F04D0074B002283F880203FE7F3
:100CC000144802F063FBF6E7024B002283F8802011
:100CD0003CE700BF8C000020FC43000804440008EF
:100CE000084400080C44000810440008144400089C
:100CF000184400081C4400085C44000860440008D4
:100D0000B045000838440008504400080D01002098
:100D1000704400088044000870B54622002128482D
:100D200002F090FA40F203520021264802F08AFABB
:100D3000002401E00134E4B2012C0DD8224B03EB76
:100D400004139B68002BF5D098470028F2D1214668
:100D50001E4802F07FFAEDE71D4802F017FB1D4820
:100D600002F078FA1C4C204602F074FA1B4802F09C
:100D700071FA1B4802F06EFA1A4E304602F06AFA17
:100D8000194D284602F002FB204602F063FA17488C
:100D900002F060FA164802F0F9FA164802F0F6FA84
:100DA000154802F0F3FA154802F054FA304602F002
:100DB00051FA284602F0EAFA204602F04BFA70BDDA
:100DC000A409002010010020B04500089C44000840
:100DD000B8440008BC440008C4440008CC440008DF
:100DE000D4440008D8440008E04400080445000842
:100DF0000C450008304500085445000880450008AF
:100E000008B50248FFF72AFE08BD00BFA40900206C
:100E10000A88013292FBF3F103FB1123028893420B
:100E200001D0002070470120704702880B889A4249
:100E300001D0002070470120704770B50C4616465F
:100E40001D46FFF7E5FF60B92388049A1278F25433
:100E50002388013393FBF5F205FB12332380012035
:100E600070BD0020FCE770B5044616461D46FFF72E
:100E7000DCFF60B92388F25C049B1A70238801337D
:100E800093FBF5F205FB12332380012070BD002097
:100E9000FCE77047FEE7FEE7FEE7FEE770477047B6
:100EA000704708B501F0D5FB00F0A4F908BD08B5FE
:100EB000082001F0CFFA08BD08B5102001F0CAFAE9
:100EC00008BD08B5202001F0C5FA402001F0C2FAA3
:100ED00008BD000008B5024801F0ACFC08BD00BF29
:100EE0003406002008B5084B1B681B6813F0200F60
:100EF00006D1262001F09EFB034801F09BFC08BDB3
:100F0000FFF7EAFCF5E700BF1807002008B54FF42B
:100F1000806001F09FFA4FF4005001F09BFA08BD89
:100F200082B00A4B1A6E42F001021A661A6E02F083
:100F300001020092009A9A6D42F080529A659B6D70
:100F400003F080530193019B02B0704700100240F0
:100F500000B589B000230393049305930693079388
:100F60000268154B9A4202D009B05DF804FB03F504
:100F700060431A6E42F480521A661A6E02F480526E
:100F80000192019ADA6C42F00102DA64DB6C03F040
:100F900001030293029BE0230393022304930023A3
:100FA0000593032306930523079303A94FF090406D
:100FB00001F064F9D8E700BF0030014030B58BB0D4
:100FC00000230593069307930893099303682F4A18
:100FD000934204D02E4A93422DD00BB030BD2D4BFE
:100FE0001A6E42F480421A661A6E02F4804201922E
:100FF000019ADA6C42F00102DA64DB6C03F001035F
:101000000293029B4FF4C0630593022406940025CB
:101010000795032308930723099305A94FF09040F0
:1010200001F02CF92A462146252001F0ABFA2520B3
:1010300001F0DCFAD1E7174B9A6D42F400329A6561
:101040009A6D02F400320392039ADA6C42F00102C4
:10105000DA64DB6C03F001030493049B0C23059317
:101060000223069300250795032408940723099378
:1010700005A94FF0904001F001F92A4621462620AB
:1010800001F080FA262001F0B1FAA6E7003801400D
:10109000004400400010024000286AD010B5044609
:1010A000436A33B94368B3F5827F05D00023C36137
:1010B00002E00023036143610023A36294F85D30E2
:1010C000002B4DD0022384F85D302268136823F092
:1010D00040031360E368B3F5E06F47D90022B3F52E
:1010E000706F04D0B3F5E06F01D00023A362636892
:1010F00003F48273A16801F404410B43216901F0F8
:1011000002010B43616901F001010B43A16901F484
:1011100000710B43E16901F038010B43216A01F0D2
:1011200080010B43A16A01F4005120680B43036066
:10113000638B03F00403616A01F010010B43616BE0
:1011400001F008010B43E16801F470610B43216871
:1011500013434B6000202066012384F85D3010BDEE
:1011600084F85C302046FFF7F3FEABE74FF4805283
:10117000B5E7012070470000104B1B780BB9012028
:10118000704710B504464FF47A70B0FBF3F30C4A85
:101190001068B0FBF3F001F037FA68B90F2C01D9F1
:1011A00001200AE0002221464FF0FF3001F0EAF969
:1011B000044B1C60002000E0012010BD0000002056
:1011C000080000200400002010B5094A136843F409
:1011D00080731360032001F0C3F90020FFF7CCFFF8
:1011E00010B10124204610BD0446FFF799FEF9E72F
:1011F00000200240034B1B78034A11680B44136024
:10120000704700BF00000020EC090020014B186867
:10121000704700BFEC09002038B50446FFF7F6FF21
:101220000546B4F1FF3F02D0044B1B781C44FFF786
:10123000EDFF401BA042FAD338BD00BF00000020E4
:1012400030B583B00446204B9B6D13F0805F0BD00C
:1012500001F036F9B0F5007F17D0802C1FD82DD0C3
:10126000702C2DD000211BE0174DAB6D43F0805347
:10127000AB65AB6D03F080530193019B01F020F946
:10128000AB6D23F08053AB65E4E7802C03D9A02C31
:1012900003D9022104E0002102E0012100E0032142
:1012A0000A4A136823F007030B431360136803F023
:1012B00007038B4206D1002003B030BD0221EFE7C7
:1012C0000121EDE70120F7E7001002400020024075
:1012D000284A9368D26802F0030213F00C030AD084
:1012E0000C2B06D0042B1FD0082B20D00020024648
:1012F00010E0012AF6D11F4A126812F0080F0CD133
:101300001C4AD2F89420C2F303221B4951F8222030
:1013100043B100200C2B0DD07047164A1268C2F35F
:101320000312F2E71046F5E714480022F2E71448EA
:101330000022EFE70F4BDB6803F00303022B16D00C
:10134000032B00D10E4A0B4BD868C0F302100130BA
:10135000D968C1F3062102FB01F2B2FBF0F2D868B2
:10136000C0F3416001304000B2FBF0F0D4E7034A23
:10137000E9E700BF00100240044600080024F40022
:1013800000127A00002800F0FF82F0B583B0044616
:10139000AE4B9D6805F00C05DE6806F00306036899
:1013A00013F0100F5AD0E5B10C2D18D0A369002B03
:1013B00000F0BB80A54A136843F001031360FFF7F8
:1013C00025FF0746A14B1B6813F0020F40F09A80DF
:1013D000FFF71CFFC01B0228F4D90320DFE2012E17
:1013E000E4D19A4B1B6813F0020F03D0A369002BC2
:1013F00000F0CC82206A954B1B6813F0080F5BD07D
:10140000924B1B6803F0F00398425CD88F4B1A682C
:1014100042F008021A601A6822F0F002216A0A43B8
:101420001A605A6822F47F42E16942EA01225A6056
:10143000002D60D0FFF74CFF844B9B68C3F3031370
:10144000834AD35C03F01F03D840824B1860824B61
:101450001868FFF791FE002840F0A182236813F07E
:10146000010F00F08180082D75D00C2D71D06368BC
:10147000B3F5803F00F09780B3F5A02F00F099807E
:10148000724B1A6822F480321A601A6822F48022A1
:101490001A606368002B00F09980FFF7B7FE0746DB
:1014A0006A4B1B6813F4003F5ED1FFF7AFFEC01B11
:1014B0006428F5D9032072E2644BD3F894301B09F9
:1014C00003F0F003A0E7FFF7BBFE002840F06082C6
:1014D0005E4B1A6842F008021A601A6822F0F002A5
:1014E000216A0A431A605A6822F47F42E16942EA9B
:1014F00001225A609EE7206AFFF7A2FE002899D0D9
:1015000001204CE2514B1A6842F008021A601A6836
:1015100022F0F002216A0A431A605A6822F47F42DC
:10152000E16942EA01225A6098E7484A136823F0C9
:1015300001031360FFF76AFE0746444B1B6813F074
:10154000020F8BD0FFF762FEC01B0228F5D90320E3
:1015500025E2032E8BD13D4B1B6813F4003F03D0D3
:101560006368002B00F01682236813F0020F4FD03F
:10157000042D3CD00C2D38D0E368002B77D0334AB3
:10158000136843F480731360FFF740FE06462F4B49
:101590001B6813F4806F61D1FFF738FE801B0228AF
:1015A000F5D90320FBE1294A136843F48033136023
:1015B0006FE703F18043A3F53C331A6842F48022BD
:1015C0001A601A6842F480321A6062E7FFF71EFE62
:1015D00007461E4B1B6813F4003FC5D0FFF716FEED
:1015E000C01B6428F5D90320D9E1022EC4D1174BC2
:1015F0001B6813F4806F03D0E368002B00F0CC81EC
:10160000124A536823F0F853216943EA0163536097
:10161000236813F0080F55D06369002B3BD00B4AA9
:10162000D2F8943043F00103C2F89430FFF7EEFD96
:101630000646064BD3F8943013F0020F42D1FFF761
:10164000E5FD801B0228F4D90320A8E10010024028
:10165000EC4500080800002004000020B84A536848
:1016600023F0F853216943EA01635360D0E7B44A99
:10167000136823F480731360FFF7C8FD0646B04B70
:101680001B6813F4806FC3D0FFF7C0FD801B0228D6
:10169000F5D9032083E1AA4AD2F8943023F001035C
:1016A000C2F89430FFF7B2FD0646A54BD3F894304C
:1016B00013F0020F06D0FFF7A9FD801B0228F4D912
:1016C00003206CE1236813F0040F7AD09C4B9B6DD0
:1016D00013F0805F36D19A4B9A6D42F080529A6532
:1016E0009B6D03F080530193019B0126954B1B6872
:1016F00013F4807F28D0A368012B39D0052B3FD06D
:101700008F4BD3F8902022F00102C3F89020D3F839
:10171000902022F00402C3F89020A368002B3DD053
:10172000FFF774FD0746864BD3F8903013F0020F95
:1017300046D1FFF76BFDC01B41F288339842F2D9C6
:1017400003202CE10026D1E77E4A136843F480731E
:101750001360FFF75BFD07467A4B1B6813F4807F2D
:10176000C9D1FFF753FDC01B0228F5D9032016E1AC
:10177000734AD2F8903043F00103C2F89030CCE7BE
:101780006F4BD3F8902042F00402C3F89020D3F8B6
:10179000902042F00102C3F89020BEE7FFF736FD2B
:1017A0000746674BD3F8903013F0020F08D0FFF7CD
:1017B0002DFDC01B41F288339842F2D90320EEE0A0
:1017C0006EBBA36A002B00F0E980022B2DD00C2DFC
:1017D00000F0EB805A4B1A6822F080721A601B6886
:1017E00013F0205F04D1564AD36823F00303D3607B
:1017F000534AD36823F0887323F48033D360FFF710
:1018000005FD04464E4B1B6813F0007F00F0BA80C4
:10181000FFF7FCFC001B0228F4D90320BFE0484A74
:10182000936D23F080539365CBE7454BDB6803F062
:101830000301E26A91420FD00C2D00F0B280404BC0
:101840001B6813F0806F40F0AE803D4B1B6813F0B7
:10185000805F2DD00120A2E003F07002216B0139DE
:10186000B2EB011FE8D103F4FE42616BB2EB012F32
:10187000E2D103F40031A26B073A18BF0122914272
:10188000DAD103F4C001E26B5208013AB1EB425FD6
:10189000D2D103F0C063226C5208013AB3EB426F1D
:1018A000CAD1274B1B6813F0007F51D0002076E08F
:1018B000234A136823F080731360FFF7A7FC0546E3
:1018C0001F4B1B6813F0007F06D0FFF79FFC401BE7
:1018D0000228F5D9032062E0194AD3681A49194051
:1018E000E36A206B013843EA0013606B43EA00238C
:1018F000E06B4008013843EA4053206C400801384F
:1019000043EA4063A06B000943EA40430B43D360C2
:10191000136843F080731360D36843F08073D3601F
:10192000FFF774FC0446064B1B6813F0007F0DD1D3
:10193000FFF76CFC001B0228F5D903202FE000BF45
:1019400000100240007000408C809DF9002026E0CD
:10195000174B1A6842F080721A60DA6842F080729F
:10196000DA60FFF753FC0446114B1B6813F0007F4D
:1019700006D1FFF74BFC031B022BF5D903200EE029
:1019800000200CE000200AE001207047012006E062
:10199000012004E0012002E0012000E0002003B06B
:1019A000F0BD0120FBE70120F9E70120F7E700BFC8
:1019B00000100240002800F0988070B50C460546E3
:1019C0004E4B1B6803F007038B420BD24B4A136844
:1019D00023F007030B431360136803F007038B42E4
:1019E00040F085802B6813F0010F39D06B68032B12
:1019F00009D0022B26D063BB414A126812F0020FB5
:101A000006D1012070E03E4A126812F0007F70D0CB
:101A10003B498A6822F0030213438B60FFF7F6FB11
:101A20000646374B9B6803F00C036A68B3EB820FE2
:101A300016D0FFF7EBFB801B41F288339842F0D9B8
:101A4000032051E02E4A126812F4003FE0D1012039
:101A50004AE02B4A126812F4806FD9D1012043E08A
:101A60002B6813F0020F06D0254A936823F0F00389
:101A7000A9680B439360214B1B6803F00703A34243
:101A80000AD91E4A136823F007032343136013681F
:101A900003F00703A3422ED12B6813F0040F06D0E6
:101AA000174A936823F4E063E9680B4393602B685B
:101AB00013F0080F07D0124A936823F46053296982
:101AC00043EAC1039360FFF703FC0D4B9B68C3F32C
:101AD00003130C4AD35C03F01F03D8400A4B186071
:101AE0000A4B1868FFF748FB70BD012070470120C2
:101AF000FAE70120F8E70120F6E700BF00200240E6
:101B000000100240EC4500080800002004000020FE
:101B1000014B1868704700BF0800002008B5FFF7A8
:101B2000F7FF054B9B68C3F30223044AD35C03F021
:101B30001F03D84008BD00BF00100240FC4500084C
:101B400008B5FFF7E5FF054B9B68C3F3C223044AC2
:101B5000D35C03F01F03D84008BD00BF0010024053
:101B6000FC450008F8B504460F46594BDB6813F0F6
:101B7000030F18D0564BDB6803F00303026893424F
:101B800002D001252846F8BD002A00F09E80504B67
:101B9000DB68C3F3021301334268934201D001258D
:101BA000F0E7002509E00368022B57D0032B5CD037
:101BB000012B42D00125002DE4D1454A136823F0C2
:101BC00080631360FFF722FB0646414B1B6813F04E
:101BD000006F05D0FFF71AFB831B022BF5D90325F5
:101BE000002DCFD1002F4ED139490B6923F41F337B
:101BF00023F44073A068E2681209520442EA00220A
:101C000013430B61324A136843F080631360FFF79C
:101C1000FDFA06462E4B1B6813F0006F05D1FFF747
:101C2000F5FA831B022BF5D90325002DAAD1284AEA
:101C30001369A1690B431361A4E7254A126812F0E6
:101C4000020F1ED02248C26822F073026168013977
:101C500043EA01131343C3600025ACE71C4A126832
:101C600012F4806FEED10125A5E7194A126812F42B
:101C7000003FE7D1164A126812F4802FE2D1012505
:101C800099E7012597E7012F0FD01148026922F04B
:101C9000C06222F4FE42A16863695B08013B5B06F7
:101CA00043EA012313430361ACE70948026922F4C4
:101CB000C00222F4FE42A16823695B08013B5B0578
:101CC00043EA0123134303619CE701255AE700BF60
:101CD00000100240F8B504460F46504BDB6813F085
:101CE000030F18D04D4BDB6803F0030302689342E7
:101CF00002D001252846F8BD002A00F08C80474B11
:101D0000DB68C3F3021301334268934201D001251B
:101D1000F0E7002509E00368022B57D0032B5CD0C5
:101D2000012B42D00125002DE4D13C4A136823F059
:101D300080531360FFF76AFA0646384B1B6813F0AE
:101D4000005F05D0FFF762FA831B022BF5D903254C
:101D5000002DCFD1002F4ED130494B6923F41F33D2
:101D600023F44073A068E2681209520442EA002298
:101D700013434B61294A136843F080531360FFF704
:101D800045FA0646254B1B6813F0005F05D1FFF7A7
:101D90003DFA831B022BF5D90325002DAAD11F4A3A
:101DA000536961690B435361A4E71C4A126812F03E
:101DB000020F1ED01948C26822F07302616801390F
:101DC00043EA01131343C3600025ACE7134A1268CA
:101DD00012F4806FEED10125A5E7104A126812F4C3
:101DE000003FE7D10D4A126812F4802FE2D101259D
:101DF00099E7012597E70948426922F0C06222F479
:101E0000FE42A16823695B08013B5B0643EA0123AC
:101E100013434361AEE701256CE700BF00100240A9
:101E20002DE9F04182B00446036813F4006F33D00B
:101E3000436EB3F5000F1FD00CD823B3B3F5800F5A
:101E400005D100212030FFF745FF064620E001279D
:101E50003E4623E0B3F5400F0BD10026624AD2F88C
:101E6000883023F44003616E0B43C2F888300027AA
:101E700014E001273E4611E05B4AD36843F4803307
:101E8000D3600026EAE700210430FFF76BFE064628
:101E9000002EE3D0374601E000273E46236813F4C6
:101EA000805F21D0A36EB3F1007F79D00ED8002BD4
:101EB0007CD0B3F1807F06D1002104F12000FFF730
:101EC00009FF064605E001273E460DE0B3F1407FDD
:101ED00063D1002E70D1444AD2F8883023F0407389
:101EE000A16E0B43C2F88830236813F4003F00F062
:101EF00084803D4B9B6D13F0805F5FD13A4B9A6DB0
:101F000042F080529A659B6D03F080530193019BD0
:101F10004FF00108354A136843F480731360FFF7EC
:101F200075F90546314B1B6813F4807F05D1FFF727
:101F30006DF9401B0228F5D90326002E58D12A4BF3
:101F4000D3F8903013F4407316D0D4F884209A421A
:101F500012D0254AD2F8903023F44073D2F8901072
:101F600041F48031C2F89010D2F8901021F4803101
:101F7000C2F89010C2F8903013F0010F21D1002E5A
:101F800040F03981184AD2F8903023F44073D4F8E5
:101F900084100B43C2F890302BE001273E46A3E7A4
:101FA000114AD36843F48033D36092E70021201DA7
:101FB000FFF7D8FD06468CE7374695E74FF0000857
:101FC000A8E7FFF723F90546074BD3F8903013F045
:101FD000020FD4D1FFF71AF9401B41F2883398421F
:101FE000F2D90326CBE700BF00100240007000408A
:101FF0003746B8F1000F40F00081236813F0010F5D
:1020000008D09D4AD2F8883023F00303A16B0B431C
:10201000C2F88830236813F0020F08D0964AD2F82D
:10202000883023F00C03E16B0B43C2F8883023683F
:1020300013F0040F08D0904AD2F8883023F0300310
:10204000216C0B43C2F88830236813F0080F08D0C6
:10205000894AD2F8883023F0C003616C0B43C2F880
:102060008830236813F0100F08D0834AD2F88830E4
:1020700023F44073A16C0B43C2F88830236813F03B
:10208000200F08D07C4AD2F8883023F44063E16CFA
:102090000B43C2F88830236813F4007F08D0764AD7
:1020A000D2F8883023F44023E16D0B43C2F8883026
:1020B000236813F4806F08D06F4AD2F8883023F475
:1020C0004013216E0B43C2F88830236813F0400F91
:1020D00008D0694AD2F8883023F44053216D0B436D
:1020E000C2F88830236813F0800F08D0624AD2F813
:1020F000883023F44043616D0B43C2F88830236875
:1021000013F4807F08D05C4AD2F8883023F440333F
:10211000A16D0B43C2F88830236813F4005F0FD021
:10212000554AD2F8883023F04063E16E0B43C2F881
:102130008830E36EB3F1006F65D0B3F1806F67D084
:10214000236813F4002F0FD04B4AD2F8883023F0C5
:102150004063216F0B43C2F88830236FB3F1006FE7
:102160005ED0B3F1806F60D0236813F4802F0FD05E
:10217000414AD2F8883023F04063616F0B43C2F8C4
:102180008830636FB3F1006F57D0B3F1806F59D0CF
:10219000236813F4804F0FD0374AD2F8883023F0E9
:1021A0004053A16F0B43C2F88830A36FB3F1805F37
:1021B00050D0B3F1005F55D0236813F4004F08D01E
:1021C0002D4AD2F8883023F08043E16F0B43C2F8E8
:1021D0008830236813F4803F09D0274AD2F888302A
:1021E00023F00043D4F880100B43C2F888303846FF
:1021F00002B0BDE8F0813746FBE61F4A936D23F03D
:1022000080539365F9E6D36843F48013D36097E76E
:102210000121201DFFF7A6FC002891D007468FE77B
:10222000D36843F48013D3609EE70121201DFFF79C
:1022300099FC002898D0074696E7D36843F48013AA
:10224000D360A5E70121201DFFF78CFC00289FD05B
:1022500007469DE70221201DFFF784FC0028ABD034
:102260000746A9E7022104F12000FFF733FD00280B
:10227000A2D00746A0E700BF00100240F0B583B02F
:1022800000233FE0C66A26EA0406C5F3C0049C406A
:102290003443C4625FE0062400E00024B4403C43C1
:1022A0000235654E46F82540644C2568D44325EA3E
:1022B00002064F6817F4803F01D042EA05065F4DE1
:1022C0002E606D6804EA05064F6817F4003F01D0E0
:1022D00042EA0506594D6E60AD6804EA05064F688E
:1022E00017F4801F01D042EA0506544DAE60ED6838
:1022F0002C404E6816F4001F01D042EA05044F4AF4
:10230000D46001330A6832FA03F400F092800124A9
:102310009C402240F5D04D686E1E012E03D9112D30
:1023200001D0122D12D186685F000325BD4026EA38
:102330000506CD68BD4035438560466826EA04063B
:102340004D68C5F300159D40354345604D6805F067
:102350000306032E96D0C7685E000325B540EC4304
:1023600027EA05078D68B5403D43C5604D68022DDD
:1023700001D0122D13D1DF08083750F827E003F001
:1023800007054FEA850C0F2505FA0CF52EEA050E18
:102390000D6905FA0CF545EA0E0540F82750056869
:1023A00025404C6804F00304B4402C4304604C689E
:1023B00014F0805FA5D0224C256E45F001052566FE
:1023C000246E04F001040194019C9D08AE1C1A4C7B
:1023D00054F8267003F00304A6000F24B44027EA43
:1023E0000407B0F1904F3FF458AF164CA04216D0FE
:1023F00004F58064A04214D004F58064A04212D099
:1024000004F58064A04210D004F58064A0420ED090
:1024100004F58064A0423FF43EAF07243EE7012468
:102420003CE702243AE7032438E7042436E705248E
:1024300034E703B0F0BD00BF0000014000040140DC
:1024400000100240000400480AB1816170478162B7
:102450007047704708B5054B5B69034200D108BD62
:10246000024B5861FFF7F5FFF9E700BF0004014098
:1024700008B590F82530DBB2022B03D00423C363E8
:10248000012008BD0268136823F00E031360026880
:10249000136823F001031360436C03F01C03016C09
:1024A000012202FA03F34B6080F82520002380F814
:1024B0002430836B13B198470020E2E70020E0E767
:1024C000024B186800F4C060704700BF0070004005
:1024D000B0F5007F0FD01F4B1B6803F4C063B3F54A
:1024E000806F34D01B4A136823F4C06343F48063C5
:1024F000136000207047174B1B6803F4C063B3F5EB
:10250000007F20D0134A136823F4C06343F40073A0
:102510001360114B1A68322303FB02F30F4AA2FB2C
:1025200003239B0C013300E0013B0A4A526912F479
:10253000806F01D0002BF7D1064B5B6913F4806FDD
:1025400003D100207047002070470320704700200F
:10255000704700BF007000400800002083DE1B436E
:10256000074AD36823F4E0631B041B0C000200F449
:10257000E060034343F0BF6343F40033D36070472C
:1025800000ED00E030B4174BDB68C3F30223C3F166
:102590000704042C28BF04241D1D062D18D9033B55
:1025A0004FF0FF3505FA04F421EA0401994005FAD9
:1025B00003F322EA0303194300280BDB0901C9B224
:1025C00000F1604000F5614080F8001330BC7047B6
:1025D0000023E5E700F00F000901C9B2024B1954CE
:1025E000F4E700BF00ED00E014ED00E0002807DB99
:1025F00000F01F02400901239340024A42F82030B4
:10260000704700BF00E100E00138B0F1807F0AD2DE
:10261000064B5860064AF02182F82310002098608B
:1026200007221A6070470120704700BF10E000E0E9
:1026300000ED00E0002808DB00F01F024009012344
:1026400093406030014A42F82030704700E100E0DA
:10265000704708B5FFF7FCFF08BD0268136823F454
:10266000907313600268936823F001039360202342
:102670008367002303667047836F202B5AD100299C
:102680005AD0002A5AD090F87030012B58D001232C
:1026900080F870304165A0F85820A0F85A20002337
:1026A00003668368B3F5805F06D0A3B9036973B985
:1026B000FF23A0F85C3014E0036923B940F2FF1354
:1026C000A0F85C300DE0FF23A0F85C3009E07F2328
:1026D000A0F85C3005E0B3F1805F1BD00023A0F8C8
:1026E0005C300023C367222383670268936843F04A
:1026F000010393608368B3F5805F15D0114B0366C7
:10270000002380F8703001680A6842F490720A6011
:102710001846704703691BB97F23A0F85C30E0E7D7
:102720003F23A0F85C30DCE70369002BE6D1064BC1
:102730000366E5E7022070470120704701207047DB
:102740000220704769270008CF270008704708B5A6
:1027500001680A6822F040020A60202242670022D3
:102760004266FFF7F3FF08BD08B5B0F85C30826F32
:10277000222A06D00268138B9BB243F0080313830E
:1027800008BD0268918CDBB2426D0B401370436D43
:1027900001334365B0F85A309BB2013B9BB2A0F8BD
:1027A0005A30B0F85A309BB2002BE9D10268136856
:1027B00023F4907313600268936823F0010393601D
:1027C0002023836700230366FDF7B8FFD8E708B529
:1027D000B0F85C30826F222A06D00268138B9BB25D
:1027E00043F00803138308BD0268918C426D0B40CF
:1027F0001380436D02334365B0F85A309BB2013BFE
:102800009BB2A0F85A30B0F85A309BB2002BEAD1F4
:102810000268136823F4907313600268936823F0CE
:10282000010393602023836700230366FDF786FF7F
:10283000D9E7704770B504460168CB6908688D68B0
:1028400040F60F021A4005D113F0200F02D010F00D
:10285000200F1CD12AB115F001021ED1544E304276
:102860001BD113F4801F03D015F4800F40F08E802D
:1028700013F0800F03D010F0800F40F08E8013F023
:10288000400F03D010F0400F40F08E8070BD236EDB
:10289000002BFBD020469847F8E713F0010F07D034
:1028A00010F4807F04D001250D62E16F2943E167B8
:1028B00013F0020F07D032B1216802250D62E16FDB
:1028C00041F00401E16713F0040F07D032B1216831
:1028D00004250D62E16F41F00201E16713F0080F7A
:1028E00009D010F0200F00D12AB12268082111620E
:1028F000E26F0A43E26713F4006F0AD010F0806FB2
:1029000007D022684FF400611162E26F42F02002AA
:10291000E267E26F002AB9D013F0200F06D010F062
:10292000200F03D0236E0BB120469847E26F236837
:102930009B6813F0400F02D112F0280F20D02046E0
:10294000FFF78BFE23689A6812F0400F14D09A6844
:1029500022F040029A60E36E53B1164A9A63E06E29
:10296000FFF786FD002891D0E06E836B98478DE7D6
:102970002046FFF75EFF89E72046FFF75AFF85E70D
:102980002046FFF756FF0023E3677FE74FF48013ED
:102990000B62204600F0C6FB78E7636E002B3FF425
:1029A00075AF2046984771E72046FFF7D0FE6DE7E8
:1029B00020010004B929000808B5806A0023A0F8A6
:1029C0005A30A0F85230FFF734FF08BDD0B50446A6
:1029D000016883680269134342691343C269134360
:1029E00008689B4A024013430B602268536823F433
:1029F0004053E1680B435360A1692268954B9A42AA
:102A000001D0236A1943936823F430630B43936026
:102A10002268914B9A4210D0904B9A4221D0904B11
:102A20009A4237D08F4B9A425CD08F4B9A426BD0F0
:102A3000884B9A427DD010233AE003F55843D3F8EF
:102A4000883003F00303032B09D8DFE803F0020406
:102A5000870601232CE004232AE0082328E0102322
:102A600026E003F5E633D3F8883003F00C030C2B93
:102A70000ED8DFE803F0070D0D0D090D0D0D750DD6
:102A80000D0D0B00002313E0042311E008230FE0D9
:102A900010230DE003F5E433D3F8883003F030035E
:102AA000202B5FD01AD8002B5ED0102B5ED10423D0
:102AB00068498A4276D0E069B0F5004F00F0A28004
:102AC000082B00F20E81DFE813F0DD00F300DB00DD
:102AD0000C01F6000C010C010C01F900302B47D160
:102AE0000823E5E703F5E233D3F8883003F0C003A9
:102AF000802B3FD004D8FBB3402B3FD10423D7E732
:102B0000C02B3DD10823D3E703F5E033D3F8883059
:102B100003F44073B3F5007F34D005D8A3B3B3F505
:102B2000807F33D10423C3E7B3F5407F30D108233E
:102B3000BEE703F5C833D3F8883003F44063B3F538
:102B4000006F27D005D83BB3B3F5806F26D104239F
:102B5000AEE7B3F5406F23D10823A9E70223A7E727
:102B60000223A5E70223A3E70023A1E710239FE7A1
:102B700010239DE702239BE7002399E7102397E7A3
:102B8000102395E7022393E7002391E710238FE7B3
:102B900010238DE702238BE7002389E7102387E7C3
:102BA000102385E7082B00F28C80DFE803F0088A09
:102BB000298A268A8A8A05004FF4004003E0FEF73E
:102BC000ADFF00287FD0626802EB420383427CD8CD
:102BD000B0EB023F7BD80023070E060250083018E6
:102BE00047F10001FDF74CFBA0F540721F4B9A42E4
:102BF0006FD82368D860002056E0FEF769FBE0E755
:102C00001B48E0E7082B66D8DFE803F007340565CA
:102C1000376565650B00164803E0FEF77FFF002867
:102C20005BD06268530803EB4000B0FBF2F080B267
:102C3000A0F110024FF6EF739A4250D820F00F0324
:102C4000C0F3420018432368D86000202CE000BF86
:102C5000F369FFEF0080004000380140004400406D
:102C600000480040004C004000500040FFFC0F00B6
:102C70000024F400FEF764FFD1E7FEF729FBCEE75E
:102C80001B4802E0FEF74AFF68B3636800EB53009D
:102C9000B0FBF3F080B2A0F110024FF6EF739A424E
:102CA00023D82368D8600020002323666366D0BD44
:102CB000FEF746FFE8E7FEF70BFBE5E74FF40040C1
:102CC000E3E70120F0E70020EEE70120ECE7012038
:102CD000EAE70120E8E70120E6E70020E4E7012039
:102CE000E2E70120E0E70020DEE70120DCE700BFAB
:102CF0000024F400436A13F0010F06D00268536801
:102D000023F40033816A0B435360436A13F0020FCC
:102D100006D00268536823F48033C16A0B435360C2
:102D2000436A13F0040F06D00268536823F480232B
:102D3000016B0B435360436A13F0080F06D002681F
:102D4000536823F40043416B0B435360436A13F011
:102D5000100F06D00268936823F48053816B0B43F5
:102D60009360436A13F0200F06D00268936823F43F
:102D70000053C16B0B439360436A13F0400F0AD0BA
:102D80000268536823F48013016C0B435360036C97
:102D9000B3F5801F0BD0436A13F0800F06D0026892
:102DA000536823F40023816C0B435360704702681F
:102DB000536823F4C003416C0B435360EBE72DE9E8
:102DC000F84305460F4616469946DDF820802C68E4
:102DD000E46937EA04030CBF01240024B4423CD167
:102DE000B8F1FF3FF3D0FEF711FAA0EB0900404520
:102DF00021D8B8F1000F1ED02B681A6812F0040F0A
:102E0000E5D0DA6912F4006FE1D04FF400621A6283
:102E10002A68136823F4D07313602A68936823F038
:102E20000103936020236B67AB67EB67002385F892
:102E30007030032012E02A68136823F4D073136003
:102E40002A68936823F00103936020236B67AB67C4
:102E5000002385F87030032000E00020BDE8F883EF
:102E60002DE9F04182B01E46436F202B55D1044618
:102E70000D469046002954D0002A54D090F8703066
:102E8000012B52D0012380F870300023C367212327
:102E90004367FEF7BBF90746A4F85080A4F85280B8
:102EA000A368B3F5805F05D04FF00008002384F8D5
:102EB000703014E0236913B14FF00008F6E7A8461C
:102EC0000025F3E738F8023B2268C3F308031385B3
:102ED000B4F8522092B2013A92B2A4F85220B4F857
:102EE00052309BB273B100963B46002280212046AF
:102EF000FFF765FFD8B9002DE4D0236815F8012B42
:102F00001A85E5E700963B46002240212046FFF760
:102F100056FF70B92023636700E0022002B0BDE8CD
:102F2000F0810120FAE70120F8E70220F6E703200C
:102F3000F4E70320F2E72DE9F04383B01E46836FE8
:102F4000202B7CD104460D46904600297BD0002AD8
:102F50007BD090F87030012B79D0012380F870304D
:102F60000023C36722238367FEF750F90746A4F8BE
:102F70005880A4F85A80A368B3F5805F06D0A3B93F
:102F8000226972B9FF22A4F85C2014E0226922B9F8
:102F900040F2FF12A4F85C200DE0FF22A4F85C20B0
:102FA00009E07F22A4F85C2005E0B3F1805F0DD03A
:102FB0000022A4F85C20B4F85C80B3F5805F0FD0E9
:102FC0004FF00009002384F870301EE022691AB91E
:102FD0007F22A4F85C20EEE73F22A4F85C20EAE719
:102FE000236913B14FF00009ECE7A9460025E9E792
:102FF00023689B8C08EA030329F8023BB4F85A20A3
:1030000092B2013A92B2A4F85A20B4F85A309BB264
:103010008BB100963B46002220212046FFF7CFFED1
:10302000B8B9002DE4D023689A8C5FFA88F3134076
:1030300005F8013BE2E72023A367002000E002201F
:1030400003B0BDE8F0830120FAE70120F8E7022091
:10305000F6E70320F4E730B583B004460023C367E6
:10306000FEF7D4F8054623681B6813F0080F0CD14F
:1030700023681B6813F0040F15D120236367A3672F
:10308000002084F8700003B030BD6FF07E430093E1
:10309000034600224FF400112046FFF790FE00285F
:1030A000E6D00320EFE76FF07E4300932B4600222B
:1030B0004FF480012046FFF782FE0028DDD0032078
:1030C000E1E768B310B50446436F03B32423636795
:1030D0002268136823F0010313602046FFF776FC93
:1030E000012813D0636ABBB92268536823F4904364
:1030F00053602268936823F02A0393602268136860
:1031000043F0010313602046FFF7A5FF10BD80F8D0
:103110007030FDF753FFD9E72046FFF7EBFDE3E7FB
:1031200001207047704700000F49D1F8883043F400
:103130007003C1F888300D4B1A6842F001021A6022
:10314000002098601A6822F0A85222F410221A6017
:103150004FF48052DA601A6822F480221A60986173
:103160004FF000638B60704700ED00E000100240FC
:10317000DFF834D0002103E00C4B5B58435004319E
:103180000B480C4B42189A42F6D30B4A02E000233C
:1031900042F8043B094B9A42F9D3FFF7C5FF00F010
:1031A00011F8FDF721FBFEE700800120E84600084A
:1031B000000000207000002070000020000A0020A5
:1031C000FEE7000070B50D4D0D4C641BA4100026E9
:1031D000A64209D10B4D0C4C01F0CEF8641BA41093
:1031E0000026A64205D170BD55F8043B984701362C
:1031F000EEE755F8043B98470136F2E7D846000859
:10320000D8460008D8460008DC46000830B5013929
:103210000024A24201D1002005E0035D01340D5DD0
:10322000AB42F6D0581B30BD0A44914200F1FF3347
:1032300000D1704710B511F8014B03F8014F9142CE
:10324000F9D110BD02440346934200D1704703F800
:10325000011BF9E70FB40A4B13B51C6824B1A3692D
:1032600013B9204600F09EFA05AB049AA1680193B9
:10327000204600F06FFC02B0BDE8104004B070477B
:103280000C000020094B13B51C68014634B1A3693A
:1032900023B90190204600F085FA0199A2682046E2
:1032A00002B0BDE8104000F019BF00BF0C000020C4
:1032B00070B50E46054618B183690BB900F072FA75
:1032C000AB69AC6813B9284600F06CFA2C4B9C42F1
:1032D00020D16C68636EDB0705D4A389980502D4FE
:1032E000A06D00F0FDFAA38919071DD52369DBB194
:1032F000013EA36816F8011F013BA36039BB002BF8
:1033000038DA22460A21284600F072F8013011D03E
:103310000A2511E01B4B9C4201D1AC68DAE71A4B3D
:103320009C4208BFEC68D5E72146284600F0B2F879
:103330000028DDD04FF0FF35636EDA0705D4A3898E
:103340009B0502D4A06D00F0CCFA284670BD002B7E
:1033500004DAA2699A4206DC0A2904D023685A1CBE
:1033600022601970C5E72246284600F041F8013076
:10337000BFD1DFE723680A255A1C22601D70DBE7F6
:10338000584600087846000838460008024B0146B7
:103390001868FFF78DBF00BF0C00002010B56AB1A0
:1033A0000139841810F8013B11F8012F934203D121
:1033B000A04201D0002BF5D1981A10BD1046FCE7B1
:1033C000F0B50C7864B103461A7818465E1C0AB949
:1033D000104605E0944208D10D4615F8012F02B9B8
:1033E000F0BD13F8017F9742F7D03346ECE70000B9
:1033F000F8B50E461446054618B183690BB900F0BE
:10340000D1F9214B9C422BD16C68A369A360A3899D
:103410001A072FD523696BB323692068C01A636923
:10342000F6B28342374604DC2146284600F026F9EE
:1034300030BBA368013BA36023685A1C22601E7046
:1034400063690130834204D0A389DB0706D50A2EC5
:1034500004D12146284600F011F988B93846F8BD54
:103460000A4B9C4201D1AC68CFE7094B9C4208BF94
:10347000EC68CAE72146284600F00CF80028CBD0BB
:103480004FF0FF37EAE700BF5846000878460008CB
:1034900038460008324B70B51D6806460C4625B10B
:1034A000AB6913B9284600F07DF92E4B9C420FD131
:1034B0006C68A389B4F90C2019072CD4DD0611D44B
:1034C0000923336042F04003A3814FF0FF303EE018
:1034D000254B9C4201D1AC68EBE7244B9C4208BFD2
:1034E000EC68E6E7580712D5616B41B104F144037B
:1034F000994202D0304600F059FA00236363A38951
:1035000023F02403A3810023636023692360A3893C
:1035100043F00803A38123694BB9A38903F4207303
:10352000B3F5007F03D02146304600F0FFF9A089B3
:10353000B4F90C2010F001030AD00023A3606369E2
:103540005B42A361236943B910F08000BAD170BD1A
:10355000810758BF6369A360F4E70020F7E700BF65
:103560000C0000205846000878460008384600083D
:103570008A892DE9F041054610070C4658D44B685E
:10358000002B05DC0B6C002B02DC0020BDE8F08179
:10359000E66A002EF9D0002312F480522F682B60C7
:1035A00032D0606DA3895A0705D56368C01A636B72
:1035B0000BB1236CC01A00230246E66A216A284632
:1035C000B047431CA38906D129681D292CD82A4A53
:1035D000CA40D60728D500226260D9042269226039
:1035E00004D5421C01D12B6803B96065616B2F6063
:1035F0000029CAD004F14403994202D0284600F0C1
:10360000D5F900206063C1E7216A01232846B0474D
:10361000411CC7D12B68002BC4D01D2B01D0162B09
:1036200001D12F60B1E7A38943F04003A381ADE747
:103630000F69002FA9D093070E6808BF4B690F6070
:1036400018BF0023A6EB07088B60B8F1000F9CDDC4
:10365000216AA66A43463A462846B047002806DC57
:10366000A38943F04003A3814FF0FF308EE7074466
:10367000A8EB0008E9E700BF0100402038B50B695E
:1036800005460C4613B90025284638BD18B1836994
:103690000BB900F087F8144B9C421BD16C68B4F94D
:1036A0000C30002BEFD0626ED00704D4990502D401
:1036B000A06D00F015F928462146FFF759FF636E0B
:1036C000DA070546E0D4A3899B05DDD4A06D00F0A0
:1036D00008F9D9E7054B9C4201D1AC68DFE7044B00
:1036E0009C4208BFEC68DAE75846000878460008B4
:1036F00038460008002310B50446C0E90033C0E98D
:103700000433836081814366C28183611946082244
:103710005C30FFF797FD054B6362054BA362054BD9
:10372000E362054B2462236310BD00BF8D41000896
:10373000AF410008E74100080B420008014900F0D2
:10374000AFB800BF7D36000870B54A1E68255543E6
:103750000E4605F1740100F079F9044640B10021EC
:10376000C0E900160C30A06005F16802FFF76AFDA1
:10377000204670BD014800F0B3B800BFF809002032
:10378000014800F0AEB800BFF8090020014800F081
:10379000A7B800BFF3090020014800F0A2B800BF9D
:1037A000F309002010B50446FFF7F0FFA3691BB131
:1037B000BDE81040FFF7F0BFC4E912332365134B97
:1037C000134A1B68A262A34204BF0123A3612046DF
:1037D00000F020F86060204600F01CF8A060204651
:1037E00000F018F80022E06004216068FFF782FF13
:1037F000A06801220921FFF77DFFE0680222122163
:10380000FFF778FF0123A361D2E700BF3446000829
:103810003D370008F8B50746FFF7ACFF1E4B1E68A2
:10382000B36913B93046FFF7BDFF4836D6E9013416
:10383000013B03D533680BB33668F7E7B4F90C5096
:10384000D5B9164BE36004F15800656600F047F8FF
:10385000FFF796FFC4E90155C4E904552560A56149
:103860000822294604F15C00FFF7ECFCC4E90D5581
:10387000C4E912552046F8BD6834D9E7042138461A
:10388000FFF762FF044630600028D5D1FFF778FFCC
:103890000C233B60EEE700BF344600080100FFFF49
:1038A0002DE9F8430646884600F148040027D4E98C
:1038B0000195B9F1010905D52468002CF7D13846E6
:1038C000BDE8F883AB89012B07D9B5F90E30013378
:1038D00003D029463046C04707436835E9E77047BB
:1038E0007047704770B50E46B1F90E10002996B0BA
:1038F00014461D4607DA00232B60B3891A0610D43C
:103900004FF480630EE06A4600F0A6FC0028F2DB6C
:10391000019A02F47042A2F500535A425A412A60B9
:10392000EEE740230020236016B070BD8B8973B58D
:103930009D0706460C4607D504F147032360236123
:103940000123636102B070BD01AB6A46FFF7CAFF95
:1039500000990546304600F079F848B9B4F90C30C2
:103960009A05EFD423F0030343F00203A381E3E7B6
:103970000D4BB362A389206043F08003A381009BB9
:103980006361019B20615BB1B4F90E10304600F019
:1039900075FC28B1A38923F0030343F00103A3813D
:1039A000A0890543A581CDE73D37000837B500293B
:1039B00048D051F8043C0190002BA1F10404B8BF99
:1039C000E41800F07DFC204A01981368154633B9CD
:1039D0006360146003B0BDE8304000F077BCA342E0
:1039E0000BD921686218934204BF1A685B68636050
:1039F00004BF521822602C60ECE71A465B680BB1DA
:103A0000A342FAD911685518A5420BD12468214464
:103A10005418A3421160DDD11C685B6853602144D7
:103A20001160D7E702D90C230360D3E72568611939
:103A30008B4204BF19685B68636004BF4919216049
:103A40005460C7E703B030BD14060020F8B5CD1CA4
:103A500025F0030508350C2D38BF0C25002D064632
:103A600001DBA94203D90C2333600020F8BD00F02C
:103A700027FC21490A6814469CB9204F3B6823B9AA
:103A80002146304600F072FB38602946304600F08F
:103A90006DFB431C23D10C233360304600F016FC31
:103AA000E3E723685B1B17D40B2B03D923601C446B
:103AB000256004E06368A2420CBF0B60536030468F
:103AC00000F004FC04F10B00231D20F00700C21AD3
:103AD000CCD01B1AA350C9E722466468CCE7C41CAB
:103AE00024F00304A042E3D0211A304600F03EFB4C
:103AF0000130DDD1CFE700BF1406002018060020FA
:103B00009368013B002B10B4936008DA9469A342D8
:103B100001DB0A2903D15DF8044BFFF769BC136888
:103B2000581C1060197008465DF8044B7047F8B5D2
:103B300006460F461446D518AC4201D1002007E0D6
:103B400014F8011B3A463046FFF7DAFF431CF3D165
:103B5000F8BD00002DE9F04F0D469DB01446984683
:103B6000064618B183690BB9FFF71CFE894B9D42CD
:103B70001BD175686B6ED90705D4AB899A0502D441
:103B8000A86DFFF7ADFEAB891B0701D52B69EBB91B
:103B900029463046FFF77EFCC0B16B6EDC070ED5C0
:103BA0004FF0FF301DB0BDE8F08F7B4B9D4201D13F
:103BB000B568DFE7794B9D4208BFF568DAE7AB8966
:103BC0009805EDD4A86DFFF78CFEE9E70023099373
:103BD00020238DF82930CDF80C803023DFF8C08108
:103BE0008DF82A304FF0010923469A4613F8012B2D
:103BF0000AB1252AF9D1BAEB040B0BD05B46224659
:103C000029463046FFF793FF013000F0AA80099A59
:103C10005A4409929AF80030002B00F0A280002349
:103C20004FF0FF32CDE905230AF1010A049307930F
:103C30008DF853301A935446052214F8011B584846
:103C4000FCF7CEFA049AD8B9D10644BF20238DF8E8
:103C50005330130744BF2B238DF853309AF80030AC
:103C60002A2B15D0079A544600204FF00A0C214603
:103C700011F8013B303B092B4ED9B0B1079214E04B
:103C8000A0EB080309FA03F313430493A246D2E717
:103C9000039B191D1B680391002BBBBF5B4242F0C5
:103CA000020207930793B8BF049223782E2B0CD1FE
:103CB00063782A2B35D1039B1A1D1B680392002BB6
:103CC000B8BF4FF0FF3302340593DFF8E4A021784A
:103CD00003225046FCF784FA40B14023A0EB0A00CF
:103CE00003FA00F0049B03430134049314F8011B0E
:103CF0002C488DF828100622FCF772FA00283FD0D5
:103D0000294B1BBB039B073323F0070308330393A3
:103D1000099B3B44099367E70CFB02320C460120E8
:103D2000A5E700230134059319464FF00A0C2046FD
:103D300010F8012B303A092A03D9002BC5D0059180
:103D4000C3E70CFB012104460123F0E703AB00931A
:103D50002A46164B04A93046AFF300800746781C6C
:103D6000D6D16B6ED90705D4AB899A0502D4A86D5C
:103D7000FFF7B7FDAB895B063FF512AF099811E776
:103D800003AB00932A46094B04A9304600F080F8A3
:103D9000E4E700BF584600087846000838460008A7
:103DA00098460008A2460008000000002F3B0008CB
:103DB0009E4600082DE9F047164699468A680B6929
:103DC000DDF820809342B8BF1346336091F843205A
:103DD00007460C460AB1013333602368990642BF97
:103DE000336802333360256815F0060506D104F107
:103DF000190AE36832689B1AAB4226DC94F8432028
:103E0000131E226818BF012392062BD404F143022B
:103E100049463846C04701301ED02368E5683268FD
:103E200003F00603042B08BFAD1AA36822690CBF78
:103E300025EAE57500259342C4BF9B1AED180026BC
:103E40001A34B5421AD1002008E0012352464946EF
:103E50003846C047013003D14FF0FF30BDE8F0874E
:103E60000135C6E7E1185A1C302081F8430022448E
:103E700094F8451082F843100233C7E70123224625
:103E800049463846C0470130E6D00136D9E7000040
:103E90002DE9FF470C469146277E0C99782F8046E6
:103EA0009A4604F1430207D8622F0AD8002F00F087
:103EB000D880582F00F0A38004F1420684F84270A5
:103EC0003AE0A7F16303152BF6D801A050F823F0D0
:103ED000293F00083D3F0008B93E0008B93E0008F0
:103EE000B93E0008B93E00083D3F0008B93E000851
:103EF000B93E0008B93E0008B93E00084940000834
:103F00006D3F00082B400008B93E0008B93E00088C
:103F10006B400008B93E00086D3F0008B93E00083C
:103F2000B93E0008334000080B681A1D1B680A6080
:103F300004F1420684F842300123A3E025680868B2
:103F40002E0600F104030AD505680B60002D03DA84
:103F50002D236D4284F843305E480A2319E015F0A2
:103F6000400F05680B6018BF2DB2EFE70B6825689E
:103F7000181D0860280601D51D6802E06906FBD5FA
:103F80001D8854486F2F0CBF08230A23002184F892
:103F900043106668A660002EA2BF216821F00401CC
:103FA00021600DB9002E4DD01646B5FBF3F103FB91
:103FB0001157C75D06F8017D2F46BB420D46F4D967
:103FC000082B0BD12368DF0708D523696168994264
:103FD000DEBF302306F8013C06F1FF36921B22615A
:103FE000CDF800A04B4603AA21464046FFF7E2FE6B
:103FF00001304CD14FF0FF3004B0BDE8F0873548B8
:1040000084F8457023680E681F0656F8045B0E603E
:1040100014D5D90744BF43F0200323601DB923689A
:1040200023F0200323601023B0E7236843F020032C
:1040300023607823284884F84530E3E75E0648BFCC
:10404000ADB2E6E71646BBE70B68266860691D1D42
:104050000D6035061B6801D5186002E07106FBD5BE
:104060001880002323611646BAE70B681A1D0A6000
:104070001E68626800213046FCF7B2F808B1801B68
:10408000606063682361002384F84330A8E72369F4
:10409000324649464046D0470130ABD023689B07A3
:1040A00013D4E068039B9842B8BF1846A4E70123E5
:1040B000324649464046D04701309BD00135E3683F
:1040C00003995B1AAB42F2DCEBE7002504F1190619
:1040D000F5E700BFA9460008BA46000870B50D46CE
:1040E0001446064618B183690BB9FFF75BFB1C4BFE
:1040F0009C4224D17468636ED80705D4A3899905BE
:1041000002D4A06DFFF7ECFBA368013B002BA3607A
:1041100005DAA26993421CDBEBB20A2B19D02368A3
:104120005A1C22601D70EDB2636EDA0705D4A389B4
:104130009B0502D4A06DFFF7D4FB284670BD094B48
:104140009C4201D1B468D6E7074B9C4208BFF46893
:10415000D1E7294622463046FFF74AF90546E3E70C
:1041600058460008784600083846000838B5064D1D
:104170000023044608462B6000F0E8F8431C02D1F7
:104180002B6803B1236038BDFC09002010B50C4634
:10419000B1F90E1000F0A0F80028ABBF636DA38941
:1041A0001B1823F48053ACBF6365A38110BD2DE9B8
:1041B000F0411F468B89DB0505460C46164605D5A2
:1041C000B1F90E100223002200F068F8A389B4F9B7
:1041D0000E1023F48053A38132463B462846BDE8A7
:1041E000F04100F017B810B50C46B1F90E1000F010
:1041F00055F8431CA38915BF606523F4805343F42D
:104200008053A38118BFA38110BDB1F90E1000F037
:1042100013B8000038B5074D044608461146002281
:104220002A601A4600F0A0F8431C02D12B6803B1A3
:10423000236038BDFC09002038B5064D0023044634
:1042400008462B6000F05AF8431C02D12B6803B1DA
:10425000236038BDFC09002038B5074D0023044613
:10426000084611462B6000F051F8431C02D12B6820
:1042700003B1236038BD00BFFC09002038B5064DEE
:104280000023044608462B6000F048F8431C02D186
:104290002B6803B1236038BDFC09002038B5074DF9
:1042A00004460846114600222A601A4600F03EF8ED
:1042B000431C02D12B6803B1236038BDFC090020E8
:1042C0000148FFF70DBB00BFF40900200148FFF7CC
:1042D00008BB00BFF409002038B5074D0446084666
:1042E000114600222A601A4600F028F8431C02D129
:1042F0002B6803B1236038BDFC090020024B582213
:104300001A604FF0FF307047FC090020024B582222
:104310001A604FF0FF307047FC090020024B582212
:104320001A600020704700BFFC090020024B582291
:104330001A604FF0FF307047FC090020024B5822F2
:104340001A604FF0FF307047FC090020044A05490D
:104350001368002B08BF0B461844106018467047BE
:104360001C060020000A0020024B58221A604FF061
:10437000FF307047FC090020F8B500BFF8BC08BC4E
:104380009E467047F8B500BFF8BC08BC9E46704713
:104390000D0A5B454E445D3A2053797374656D2078
:1043A0005265626F6F74696E6700000074686973AC
:1043B000206973206A756E66656E6720696E697420
:1043C0002066756E6374696F6E206F6620636C691A
:1043D0000000000074686973206973206A756E6656
:1043E000656E6720657865637574652066756E63B4
:1043F00074696F6E206F6620636C69001B5B2564B7
:10440000440000001B5B4B001B5B41001B5B420038
:104410001B5B43001B5B44002573000063616C6CF5
:10442000206A756E66656E672066756E6374696F67
:104430006E312D2D0000000063616C6C206A756E7A
:1044400066656E672066756E6374696F6E00000046
:104450000D0A2D3E204F4B0D000000003030310082
:104460000D0A2D3E20504152412E204552520D0042
:104470000D0A2D3E2046554E432E204552520D002A
:104480000D0A2D3E20434D44204552522C2074727B
:10449000793A2068656C700D0A0D00000D0A2D3EFA
:1044A0002046554E5B25645D20494E4954205752A5
:1044B0004F4E470D0A000000200D00001B5B313BF2
:1044C00034306D001B5B313B33326D001B5B324A75
:1044D000000000001B5B48001B5B313B33336D0069
:1044E0002D2D2D2D2D2D2D2D2D2D2D2D2D2D2D2DFC
:1044F0002D2D2D2D2D2D2D2D2D2D2D2D2D2D2D0D0C
:104500000A0D00001B5B376D0000000020202020FA
:10451000434C492076657273696F6E3A2056302E8F
:1045200031202020202020202020200D0A0D0000F6
:1045300020202020636F6465723A2043617420203C
:104540002020202020202020202020202020200D7E
:104550000A0D000020202020456D61696C3A206A18
:10456000756E66656E672E77656940686F6E6573F8
:104570007461722E636F6D202020200D0A0D0000E3
:104580001B5B32376D0000007265626F6F74000054
:104590006A756E66656E67006A756E66656E672021
:1045A0006973206120676F6F6420626F790A000071
:1045B00088450008D0450008B509000861090008D1
:1045C0009045000898450008B5090008C50900088D
:1045D0005B7265626F6F745D0D0A202A20726562DE
:1045E0006F6F74204D43550D0A0D0A000000000046
:1045F0000000000001020304060708090000000093
:1046000001020304A0860100400D0300801A060089
:1046100000350C0040420F0080841E0000093D0060
:1046200000127A000024F40000366E010048E80110
:10463000006CDC0210000020000000000000000000
:10464000000000000000000000000000000000006A
:10465000000000000000000000000000000000005A
:10466000000000000000000000000000000000004A
:10467000000000000000000000000000000000003A
:10468000000000000000000000000000000000002A
:104690000000000000000000232D302B2000686C7B
:1046A0004C00656667454647003031323334353655
:1046B000373839414243444546003031323334358E
:1046C00036373839616263646566000000000000B7
:0846D000E0BBFF7F01000000C8
:0846D800B5010008000000001C
:0846E000910100080000000038
:1046E800010000001000000000093D00100000203B
:1046F80000000000584600087846000838460008C0
:1047080000000000000000000000000000000000A1
:104718000000000000000000000000000000000091
:104728000000000000000000000000000000000081
:104738000000000000000000000000000000000071
:104748000000000000000000000000000000000061
:04000005080031714D
:00000001FF
