:020000040800F2
:1000000050050020F5490008D1470008D3470008F3
:10001000D5470008D7470008D9470008000000006E
:10002000000000000000000000000000DB470008A6
:10003000DD47000800000000DF470008E147000836
:10004000194A00081D4A0008214A0008254A0008EC
:10005000294A00082D4A0008314A0008354A00089C
:10006000394A0008EF470008F54700083D4A0008F4
:10007000414A0008454A0008494A00084D4A00081C
:10008000514A0008554A0008594A00085D4A0008CC
:10009000614A0008654A0008694A0008FB470008F1
:1000A0006D4A0008714A0008754A0008794A00083C
:1000B0007D4A0008814A0008854A0008894A0008EC
:1000C0008D4A0008914A0008954A0008994A00089C
:1000D0009D4A00080D48000813480008A14A00087E
:1000E0003D480008A54A0008A94A0008AD4A000892
:1000F000B14A0008B54A0008B94A0008BD4A0008DC
:10010000C14A0008C54A0008C94A0008CD4A00088B
:10011000D14A0008D54A0008D94A0008DD4A00083B
:10012000E14A0008E54A0008E94A0008ED4A0008EB
:10013000F14A0008F54A0008F94A0008FD4A00089B
:10014000014B0008054B0008094B00080D4B000847
:10015000114B0008154B0008194B00081D4B0008F7
:10016000214B0008254B0008294B00082D4B0008A7
:10017000314B0008354B0008394B000800000000E7
:100180003D4B0008414B00082DE9F04F82460FF22D
:100190005860A5B015461E46D0E90023CDE91223CC
:1001A00003AF00207960B8620DF1500900E04544CA
:1001B0000020ADF8020012AB4FF0FF3229460DF1DE
:1001C000020001F0AEF88046B8F1010F08DA287895
:1001D000B0F1010868EB08086FEA08004FEAD07830
:1001E000BDF8020025280CBFA8F1010BC346BBF1E6
:1001F000010F0EDB2C4614F8011B7868D04700284D
:10020000786000F0F880B86A401CBBF1010BB8625E
:10021000F1D1BDF80200252807D1002038617861AE
:10022000B861F8613862786205E00028BFD1B86A29
:10023000E2E240F0010015F8011F2029F9D023293E
:100240000DD02B2904D02D2906D030290AD00CE05E
:1002500040F0020080B2EEE740F00400FAE740F020
:100260000800F7E740F01000F4E72A290ED13168C2
:10027000316051F8042B3160002A3A6304D55142B1
:1002800040F00400396380B26D1C13E00021396333
:100290000BE0396B6FF00043994205D001EB81030D
:1002A00002EB4301303939636D1C2A78A2F1300129
:1002B0000A29EED329782E2903D04FF0FF31F962B5
:1002C0001FE015F8011F2A2907D1316831606D1C24
:1002D00051F8042B3160FA6213E00021F9620BE05F
:1002E000F96A6FF00043994205D001EB810302EBFC
:1002F00043013039F9626D1C2A78A2F130010A29D4
:10030000EED3B8860FF2E840297801F01BF808B167
:1003100015F8010B8DF842009DF84200682802BFD5
:1003200029786829622005D06C2804BF28786C28B9
:1003300003D171208DF842006D1C14A8F86015F8E7
:10034000014BB4F125002AD01C3800F0DB80001FDF
:10035000022840F2D780133800F0FB80093800F003
:10036000D180801E00F06581401E00F03C81401E5F
:10037000022840F2C780001F00F03581401F00F0C6
:100380009280401E00F0E580401E37D0C01E0BD08A
:10039000801E00F0DE80C01E00F0DB806CE12520B6
:1003A0008DF85000012070E19DF842006C28306803
:1003B000306016D050F8048B3060C7F80880FC6AB3
:1003C000002C04D5404600F0C9FF044607E0224651
:1003D0000021404600F0DEFF08B1A0EB08047C617C
:1003E00054E150F8042B306002A9504600F03EFA68
:1003F000002840F14B814FF0FF30FDE13168316062
:10040000002251F8040B31604FF03C0E0021CDE981
:10041000020114A8B860DDE902019142FC6808BF3E
:10042000904201D1FA6AC2B100F00F033033DBB25F
:100430003A2BA8BF2733AEF101020009A354964618
:1004400040EA017009090022914208BF904204D09D
:10045000BA6804EB0E039A42E6D304EB0E01B960CE
:10046000CEF13C00F96A7861884207DA081AF8612F
:100470004FF6EF71B88E0840B88607E1002940F1C9
:10048000058197F8341001F01401102940F0FE8026
:10049000396B3A69891AFA69891A081A0128C0F26F
:1004A000F580F861F2E09DF8420062281AD06828D1
:1004B00006D06A280CD06C281CD0712808D019E00E
:1004C0003068306050F8041B3060B86A0880DDE0A6
:1004D0003068306050F8042B3060B86AC117C2E948
:1004E0000001D3E03068306050F8041B3060B86A17
:1004F0000870CBE03068306050F8041B3060B86A98
:100500000860C3E03068C01D20F007023260D2E905
:10051000000108323260CDE90201002902D53869B4
:100520002D2109E0B88E810702D538692B2103E01F
:10053000C00705D53869202109F80010401C386132
:1005400014A839690844B860214602A800F09AFB53
:100550009CE09DF842006C280DD0712818BF6A28D5
:1005600009D13068C01D20F007023260D2E90001D5
:100570000832326005E03168316051F8040B3160B7
:100580000021CDE902019DF84200682803D1DDE990
:10059000020180B20BE0622803D1DDE90201C0B2A2
:1005A00005E0742818BF7A2804D1DDE90201002192
:1005B000CDE9020197F83400000731D5DDE90223C7
:1005C0000020834208BF82422AD044F020007828CD
:1005D00026D13869302109F80010401C411C3961CE
:1005E00009F800401CE09DF84200314600F007F990
:1005F000CDE90201DDE9022300218B4202DA3869EC
:100600002D2109E0B88E810702D538692B2103E03E
:10061000C00705D53869202109F80010401C386151
:1006200014A839690844B860214602A800F0A4FA69
:100630002CE09DF842006C2809D001203861306818
:10064000306050F8041B30608DF850101EE03068A8
:10065000306001AA50F8041B3060ADF8041000208F
:10066000ADF8060002A94FF0FF30F862504600F0E6
:10067000FDF800280AD5BEE625208DF8500001209F
:1006800038611CB189F8014002203861386B396942
:10069000401AF969401A7969401A396A401AB969E9
:1006A000401A796AA0EB010897F83400400711D48A
:1006B0002020B8F1010F8DF800000BDB4446012328
:1006C0006A4602A9504600F007FE00287FF493AE68
:1006D000641EF4D1D7F810B0BBF1000F14AC0DD0EC
:1006E00014F8011B7868D047002878603FF483AE87
:1006F000B86A401CBBF1010BB862F1D130208DF813
:100700000000FC69012C0ADB01236A4602A950465D
:1007100000F0E2FD00287FF46EAE641EF4D1D7F83D
:1007200014B0BC68BBF1000F0DD014F8011B786841
:10073000D047002878603FF45EAEB86A401CBBF139
:10074000010BB862F1D130208DF800003C6A012C19
:100750000ADB01236A4602A9504600F0BDFD0028CD
:100760007FF449AE641EF4D1B8687969D7F818B03F
:100770004418BBF1000F0DD014F8011B7868D04766
:10078000002878603FF437AEB86A401CBBF1010B1B
:10079000B862F1D130208DF800007C6A012C0ADBB0
:1007A00001236A4602A9504600F096FD00287FF416
:1007B00022AE641EF4D197F8340040077FF5F8AC00
:1007C0002020B8F1010F8DF80000FFF6F1AC0123F5
:1007D0006A4602A9504600F07FFD00287FF40BAE68
:1007E000B8F10108F3D1E3E40000000000000000CC
:1007F000686A6C747A4C000025B0BDE8F08F6228FE
:1008000026D068281DD06A2808D06C2827D07128E7
:1008100004D0742823D07A280CD020E00868C01DAA
:1008200020F007000860D0E900230830086019466E
:10083000104670470A680A6052F8040B0A600021EB
:1008400070470A680A6052F8040B0A6000B20BE0B5
:100850000A680A6052F8040B0A6040B204E00A68B1
:100860000A6052F8040B0A60C11770472DE9F44F73
:100870000D4694B0D5F830A0BAF1000F804648BFBD
:100880006FF0004A00F0B2FD696B401801900FF65E
:100890007820D0E90023CDE9022395F838004007FD
:1008A00002D40198412805D240200DF11009019091
:1008B000002609E000F0A0FD5FEA0009F8D14FF042
:1008C000FF3056E1AAEB040ABAF1010FC0F2CE8064
:1008D0001498018802AA0DF1010000F0E5FD00283E
:1008E000044600F1DE801498008810B9641E00F1FF
:1008F000D880A245C0F2BA80686901992218914255
:1009000080F0A2806E634042296A401AA969401AA9
:10091000696A401AE969401AA96A461A95F83800C6
:10092000400710D42020012E8DF800000BDB374645
:1009300001236A462946404600F0CEFC002840F0DC
:10094000B0807F1EF4D1D5F814B0BBF1000F4F4634
:100950000DD017F8011BA868C0470028A86000F058
:10096000A080E86A401CBBF1010BE862F1D13020A5
:100970008DF800002F6A012F0ADB01236A46294601
:10098000404600F0A9FC002840F08B807F1EF4D187
:10099000D5F818B0EF68BBF1000F0CD017F8011BA9
:1009A000A868C0470028A8607BD0E86A401CBBF15B
:1009B000010BE862F2D130208DF800006F6A012F40
:1009C00009DB01236A462946404600F085FC0028E1
:1009D00067D17F1EF5D1E868A969D5F81CB0471822
:1009E000BBF1000F0CD017F8011BA868C047002806
:1009F000A86056D0E86A401CBBF1010BE862F2D156
:100A000030208DF80000AF6A012F09DB01236A4610
:100A10002946404600F060FC002842D17F1EF5D1F7
:100A200095F8380040070DD52020012E8DF80000E4
:100A300008DB01236A462946404600F04DFC80BB96
:100A4000761EF6D100266E61224668690DF101011D
:100A5000484400F037FD6869201868611498801CCC
:100A60001490801E008800287FF42CAF686B6969A1
:100A7000401A296A401AA969401A696A401AE96944
:100A8000401AA96AA0EB010A95F83800400710D473
:100A9000BAF1010F0DDB5446A8682021C047A860B9
:100AA00010B94FF0FF365DE0E86A401C641EE86252
:100AB000F2D16B694A462946404600F00DFC0028F9
:100AC000EFD12C6A012C0ADBA8683021C04700282E
:100AD000A860E6D0E86A401C641EE862F4D1AB6905
:100AE000EA682946404600F0F7FB0028D9D16C6A35
:100AF000012C0ADBA8683021C0470028A860D0D0AC
:100B0000E86A401C641EE862F4D1E868A969EB69F0
:100B100042182946404600F0DFFB0028C1D1AC6AEC
:100B2000012C0ADBA8683021C0470028A860B8D093
:100B3000E86A401C641EE862F4D195F8380040076A
:100B40000ED5BAF1010F0BDBA8682021C0470028A1
:100B5000A860A6D0E86A401CBAF1010AE862F3D1A5
:100B60006E616E6304A881451CBF484600F0E6FC38
:100B7000304615B0BDE8F08F2DE9F3430546084631
:100B80002F696F2808BF082405D041F0200178297B
:100B900014BF0A2410243C26D5E90023642818BF7A
:100BA00069289046994606D100218B4203DAD8F194
:100BB000000869EB49090020814508BF80450CD138
:100BC000286B50B9082C38D195F83800000734D577
:100BD00030203B2687F83B002FE0701E0090064631
:100BE000404649462246E31700F0E8FC02F1300097
:100BF000C0B23A2803DB9DF8041051390818B855E3
:100C0000494640462246E31700F0D8FC8046894614
:100C10000020814508BF804503D0E868B9198842A3
:100C2000DBD3082C09D195F83800000705D5B85D4D
:100C3000302802D0761E3020B855B919E960C6F1C7
:100C40003C00296BA861884208DA081A28624FF62E
:100C5000EF71288F08402887BDE8F38300290ED55F
:100C600095F8381001F01401102908D1696B6A69F0
:100C7000891A2A6A891A0E1A012EA8BF2E62BDE8A7
:100C8000F38300002DE9F24F04468EB0D4E9000151
:100C9000CDE9020104AF9DF8380040F0200BBBF114
:100CA000610F0AD0206B002848BF062004D408BF7B
:100CB000BBF1670F01D1012020636168C1F30A50C5
:100CC00040F2FF7290421CD1080304BF2068002844
:100CD00009D10320A0619DF8380061381A2835D366
:100CE0000FF2386108E00320A0619DF838006138F8
:100CF0001A2828D30FF21C61E068032200F0E2FBFF
:100D0000BDE1012815DA204600F0CFFC012810DBF8
:100D100000250020BBF1610F1FD1E16830220A706D
:100D20008A1CE2609DF83820612A0CBF7822582284
:100D30000FE0626840F2FE3161F31E52451A6260B4
:100D40004FF0FF30E6E70FF2C851D5E70FF2C85178
:100D5000D2E74A706169891C616110B900260025DB
:100D600084E1BBF1610F40F09880206BD4E900ABC7
:100D700000284CBF2126461CDDE902010022002389
:100D800000F0B6FC36B23ABF8BF00040CDE902A0CD
:100D9000CDE902AB06F101082D1FB8F1010F8DF866
:100DA00010200DF1110736DBDDE9020100220023DE
:100DB00000F0B6FC2FD21C2102A800F0C9FCDDE92E
:100DC000020100F04FFDA8F10708B8F1010F8146BC
:100DD00009DB00F073FD02460B46DDE9020100F07D
:100DE00085FDCDE90201F81D072105E009F00F029C
:100DF00000F8012D4FEA2919B9F1010F01DB491E55
:100E0000F4D5491E5CBF002200F8012DF9D5C71D9D
:100E1000B8F1010FC8DA0DF11100391AB142B8BFAB
:100E20000E4636B230000DF111072FD4884206DA93
:100E300004A9014449780829A8BF0F2100DA00213C
:100E400004AA024400E0761E12F80139401E8B42CB
:100E5000F9D00F2904D104A901444A78521C4A70E0
:100E6000002802D504AF761C2D1D36B2701E0DD49D
:100E700039180A783032D2B23A2A03DB9DF838307A
:100E80003A3B9A18401E01F80129F2D5206B002840
:100E900040F1EC80701E2063E8E0DDE902010022F1
:100EA000002300F025FC3CBF81F00041CDE90201A8
:100EB0002DB247F2975068434B49DFF8309190FBD1
:100EC000F1F52DB2C5F1070ABAF1010F90461CDB0E
:100ED000DDE902675FEACA7007D542464B463046F5
:100EE000394600F0C3FD06460F4640464946424695
:100EF0004B464FEA6A0A00F0B9FDBAF1000F80468E
:100F00008946E7D1CDE9026724E0CAF1000A00264C
:100F1000374F14E05FEACA7007D542464B46304669
:100F2000394600F0A3FD06460F4640464946424674
:100F30004B4600F09BFD4FEA6A0A80468946BAF1AB
:100F4000000FE7D1DDE9020132463B4600F060FECA
:100F5000CDE90201BBF1660F216BDFF898900CBF61
:100F600005F10A0006204618142EA8BF13263020CB
:100F70008DF810000DF11107012E3DDBDDE90201B6
:100F800000F086FC07F1080104220A23B0FBF3F30A
:100F900003EB8307A0EB4700303001F8010C0A2077
:100FA000B3FBF0F000EB8007A3EB47033033521E96
:100FB00001F8023DE9D1083E012E01F10807DBDB13
:100FC000DDE9020100F064FC00F082FC02460B4601
:100FD000DDE9020100F08AFC00224B4600F046FDEC
:100FE000CDE90201CAE700BFA0860100000024404D
:100FF0000000F03F84D797410DF11100381A0DF130
:10100000110702E0401E6D1E7F1C39783029F9D08F
:10101000BBF1660F08BF691C04D0BBF1650F0CBFA4
:1010200001210021226B8E1836B2B042B8BF0646AD
:1010300036B231001AD4814204DA785C3528A8BF70
:10104000392000DA30207A18521E00E0761E12F89D
:101050000139491E8342F9D0392802D1785C401CFD
:101060007854002902D57F1E761C6D1C2DB29DF888
:101070003810009533B23A46204600F003F80FB01E
:10108000BDE8F08F2DE9F04786B006468A469046C7
:101090001D4600F006FF012D406A376B90F8009066
:1010A00002DA01250FF278284AF02000BDF9384015
:1010B000662808BF641C12D0672878D114F1040F89
:1010C0007BDBBC4279DA96F83800641C000702D456
:1010D000BD42B8BF2F4624B23F1B48BF002724B2F1
:1010E000F068B169012C23DA4A1C30234354012FE4
:1010F00003DA96F83800000703D5F06800F802908C
:10110000521CE742B8BF7C4224B260427062E719C9
:10111000AF42B261B8BF3D46F068B3692DB2F56128
:101120002A464146184400F0CDF9781BB062BCE075
:1011300022469542084416DA2A46414600F0C2F992
:10114000B1696918601B012FB161706203DA96F80A
:101150003800000705D5F06800F80190F069401CE0
:10116000F061B762A1E0414600F0ACF9B069201827
:101170002D1B012F03DA96F83810090703D5F16803
:1011800001F80090401CB0612DB2AF42B8BF3D469F
:10119000F068B3692DB22A4608EB0401184400F048
:1011A00091F9B0692818B061781B70627DE0BAF1DE
:1011B000610F14D14FF0700A16E0BD4204DA96F8C0
:1011C0003810090758BF2F467F1E48BF0027BAF1C5
:1011D000670F14BF4FF0450A4FF0650A04E0BAF1FB
:1011E000410F08BF4FF0500AB169F368481CB06165
:1011F000012F18F8012B5A5403DA96F83810090712
:1012000017D5F168431CB36101F80090012F10DB82
:101210006D1E2DB2AF42B8BF3D46F0682DB22A46D2
:101220004146184400F04EF9B0692818B061781BA7
:101230007062F068B1690144200081F800A004D414
:101240002B20487001F1020804E02D224A7001F1C0
:1012500002086442002502AF08E00A22684600F056
:1012600039FE019807F8010B6D1C009C21B2012981
:10127000F3DA022D06DA4AF02000652804BF302098
:1012800008F8010B4DB9302008F8010B07E06D1E7E
:1012900002A8405D303008F8010B012DF7DAF06844
:1012A000B1690844A8EB0000F06196F8380000F03E
:1012B000140010280DD17069B1690818716A0818F6
:1012C000F1690818B16A0818716B8842BCBF081A26
:1012D000306206B0BDE8F087F8B504460D46164604
:1012E0001F46002077B116F8011BA868A047A86028
:1012F00030B1E86A401CE86200207F1EF3D1F2BDE5
:101300004FF0FF30F2BD00000000000000000000C0
:101310006E616E004E414E00696E6600494E460099
:101320003000F8B504460D4616461F4600F0DAFDBB
:101330003B4632462946204601B0BDE8F04000F069
:10134000E8BD00000278C9B28A421AB11CBF10F889
:10135000012FF9E718BF00207047000000F10103DA
:10136000810704D010F8011B89B18107FAD1026806
:10137000B2F10131914311F0803F04BF50F8042FC6
:10138000F6E710F8011B11B110F8011BFBE7C01ABA
:1013900070470000C9B2830706D0521E22D310F84E
:1013A000013B9942F7D11FE0083A13D302F104023E
:1013B00041EA012141EA014150F8043B121F21BFDB
:1013C0004B40A3F1013C2CEA030C1CF0803FF3D00E
:1013D000C9B2001F083210F8013B521E28BF91EA23
:1013E000030FF8D818BF0120401E704780B500F0E9
:1013F00079FD012002BD000070B5054605F10F0022
:10140000C408AFF30080E400A54232D2082C04D215
:10141000082402E0083000F091F822480268110028
:101420000CD1011D0A6802B31368A34238BF111D15
:10143000F8D310E01D68A5420DD2191D0B68002BD2
:10144000F8D11268011D00E0191D0B6893420CD001
:101450001D68A542F8D361B10D682A68A2F108039E
:10146000A3420AD26A680A600FE000F075FD002806
:10147000D0D1AFF30080002070BD2B190B60121B80
:101480006E685E600B681A602C60096800291DBFD9
:101490004A68002A091D00210160AFF3008005F1B0
:1014A000080070BDD40F002070B504460D461646E6
:1014B00000F018FD324629462046BDE8704000F095
:1014C0001BBD000062B38B0708D0521E11F8013B10
:1014D00000F8013B00F024808B07F6D1830740F031
:1014E000208000BF103A07D330B4B1E83810103A6A
:1014F000A0E83810F9D230BC530724BFB1E8081077
:10150000A0E8081044BF51F8043B40F8043BD20760
:1015100024BF31F8022B20F8022B44BF0B78037054
:101520007047083A07D3B1E80810083A40F8043B7E
:1015300040F804CBF7D25307E4E7000000B9704746
:1015400038B5A0F108042068082833D310F0070F3D
:1015500030D1AFF300801848416809B18C4203D202
:101560006160446017E019464B680BB1A342FAD39F
:101570000B68CD18AC421BD3A54204D12268D21807
:101580000A600C4607E04A681AB1236823449A426D
:101590000ED362604C60616851B12268A3188B421F
:1015A00006D10023036008688018206048686060E6
:1015B000AFF3008031BD0000D40F00201B4213D1D7
:1015C000094236D12AB18446B0FBF2F002FB10C2C8
:1015D000704700F0D7BCFCD30022002370470B00FB
:1015E0000200002100207047904271EB030CF6D3FB
:1015F00070B5B1FA81F4B3FA83F52C1BA340C4F1A2
:10160000200532FA05F63343A2405FF00046E6407B
:1016100002E05B085FEA3202841A71EB030524BF23
:10162000204629467641F4D302000B003000002109
:1016300070BD012ACFD970B5140C20D0B1FA81F455
:10164000B2FA82F5C4F120046419B4F12006D6D3AD
:10165000B2405FF00044F440002502E052085FEA27
:101660003303C61A71EB020E24BF30467146644143
:101670006D41F3D302000B002000290070BD0C4621
:10168000B1FBF2F102FB11452D0445EA1045B5FB13
:10169000F2F402FB145580B240EA0545B5FBF2F0C6
:1016A00002FB105240EA044070BD30B4436803F0BE
:1016B00000420121C3F313034360002B04BF0368FE
:1016C000002B08D10DE00368DD0F45EA44044460B7
:1016D0005B000360491E4468E302F4D5C4F31303BE
:1016E000436043681A434260084630BC70470000BC
:1016F0004FF4001C1CEB410F94BF1CEB430F09E09F
:1017000041EA030C50EA4C0C52EA0C0C03D2994209
:1017100008BF9042704714BF8B428242704700005E
:101720004FF4001C1CEB410F94BF1CEB430F09E06E
:1017300041EA030C50EA4C0C52EA0C0C03D28B42E7
:1017400008BF8242704714BF994290427047000020
:1017500070B504460D466068C0F30A5040F2FF7150
:10176000884207D16068000304BF2068002817D0B2
:10177000022070BD20B92046FFF797FF012866DAE6
:10178000012D0FDB40F2FF71091A8D420AD3606808
:1017900000284CBF9FED2F0B9FED300B84ED000B0D
:1017A000012070BD4142A942616806DA6FF31E5103
:1017B000401941EA0050606040E0401E63684519EE
:1017C000012205F1350062F31F53352801F0004175
:1017D000636003D361600020206070BD002015F1BC
:1017E0001F0F04DA206823600022203562606A42FD
:1017F00012D0401E25688041C2F12003C0439D40A5
:1018000045EAD07025686668D54006FA03F32B4395
:1018100023606368D340636062680A43B0F1004F9D
:10182000626003D80DD12078C0070AD52068401C1B
:101830002060206828B96068401C60604FF0FF306D
:1018400070BD6068884204BF20680028F6D100207F
:1018500070BD00BF000000000000F0FF00000000AD
:101860000000F07FF446400D40EAC120490006D256
:1018700000F014F8004248BF6FF00040604700F0ED
:101880000DF84FF0004188428CBF08464042604747
:10189000400D40EAC120490080F00D8040F000403A
:1018A000490DA1F58061491C05D4D1F11F0154BF38
:1018B000C840C01770474FF000007047010040F16A
:1018C0000980F446404200F005F851F000416047BD
:1018D000010000BF09D0B0FA80F18840C91CC1F5F1
:1018E0008461090501EBD02140057047F0B44FF049
:1018F000004591EA030F44BF6B4000F045BB00BFB9
:10190000841A71EB030604D26E40001BB141121918
:1019100073414FF4001C1CEB410F34BF7CEB4306BA
:1019200084E00C0DA4EB1356362E7DDC012E43DC37
:1019300045EAC32343EA525312BFD20292025B0824
:10194000240545EAC12141EA5051D2EBC02099411A
:1019500025D407D1B0FA80F610FA06F164D0002041
:10196000203608E0B1FA81F6B140C6F1200220FA33
:1019700002F21143B0404FEAF474B4EB465434F031
:1019800001064FEA74040AD8D6F50016760D04F065
:101990000044F04061FA06F25040F1404840C00A6D
:1019A00040EA415021F0004128BF5FEA500550F164
:1019B000000044EBD12137E045EAC323DB0A45EAC6
:1019C000C121C90AB6F120050EDD42EA0242120C1D
:1019D000C5F1200603FA06F6EB4042EA06056D4221
:1019E000984161F100010DE062FA06F5F2405540C0
:1019F00063FA06FC82EA0C02F3405A406D429041C1
:101A000061EB030111F4801F05D1641E620502D051
:101A10006D004041494121F48011430875F10043B4
:101A200050F1000041EB0451F0BC70471CEB410F3A
:101A300015D223F0004352EA43060BD04FEA4C0C78
:101A4000BCEB410F04D80C0D661E342EB7DDEBE75E
:101A5000801A994150EA410608BF0021E4E708BF17
:101A60001CEB430F28BF6FF00001DDE7B0B581EA42
:101A7000030C0CF0004C40F2FF7515EA11541DBF29
:101A800015EA1357AC42AF4239E0E41923EA455353
:101A900043F48013C90241F0004141EA505EC7029D
:101AA0001100A7FB020200284FF00000EEFB01200E
:101AB0004FF00001E3FB072118BF42F0010240187C
:101AC00000214941E3FB0E01A4F580640F0302D21B
:101AD00052004041494154F101046CDD470872F164
:101AE000004250F1000051EB0451A1F580115CBFA0
:101AF00041EA0C01B0BD4CEA05510020B0BD05EA39
:101B00001357AC4214BFAF4241E050EA410E1CBF34
:101B100052EA430E02E061460020B0BD24423C443C
:101B20001BD15FEA070EF6D0090302BF0146002071
:101B3000AEF1140EB1FA81F7AEEB070401FA07FE1D
:101B40000C37C7F1200100FA07F7C8404EEA000E33
:101B500023EA455343F48013A2E733F00043B3FA7A
:101B600083F704BFB2FA82FE77440B3FE41BB7F160
:101B7000200E2FBF02FA0EF3BB40C7F1200E22FA4F
:101B80000EFE38BF43EA0E03BA40641C82E750EAF7
:101B9000410E14BF52EA430E6FF000014FF40017DC
:101BA00017EB430F8ABF194617EB410FB5E74CEA15
:101BB00005510020B0BDD4F10104B4F120070FDAC3
:101BC000C4F12007520828BF42F0010210FA07F5BD
:101BD00001FA07F7E1BF2A43E0403843E1400FE054
:101BE000352C98DCC7F1200452EA400220FA07F2B3
:101BF00018BF42F0010231FA07F0A1400A43002168
:101C000072F1004250F1000051EB0C01B0BD000038
:101C10002DE9F04140F2FF7581EA030C0CF0004C15
:101C200015EA11541DBF15EA1357AC42AF42E9E063
:101C3000BC41C1F31301C3F31303801A994143F468
:101C4000801304D2641E4000494180185941C902E2
:101C500041EA5051B1FBF3F603FB1611A2FB0675E6
:101C6000D7EBC020A94102D2761E80185941C90283
:101C700041EA5051B1FBF3FE03FB1E11A2FB0E75AE
:101C8000D7EBC020A94103D2AEF1010E8018594113
:101C9000890241EA9051760546EA8E2EB1FBF3F6B1
:101CA00003FB1611A2FB0675D7EB8020A94102D2D7
:101CB000761E80185941C90241EA50514EEA060E7B
:101CC000B1FBF3F603FB1611A2FB0675D7EBC020A0
:101CD000A94102D2761E80185941C90241EA5051E9
:101CE000B1FBF3F703FB1711A2FB0735D3EBC020C1
:101CF000A94167F100070CBF004247F0010766F3F6
:101D0000D5274FEA1E31B80814F5806414DDBD07ED
:101D100075F1004250EB0E5051EB045111F5801F4C
:101D20005CBF41EA0C01BDE8F0814CF07F6141F0FD
:101D3000E0410020BDE8F081BD076D0840EA0E508B
:101D400041F48011D4F10104B4F120060ADAC4F19F
:101D500020060200E04001FA06F3E1401843B240D9
:101D600015430EE0342C14DCC6F1200445EA40058E
:101D70006D0820FA06F2154321FA06F0A1400D4342
:101D8000002175F1004250F1000051EB0C01BDE85B
:101D9000F08100205FEA0C01BDE8F081CFB9921814
:101DA0005B41B3FA83F704BFB2FA82F6BF190B3F67
:101DB000B7F120062FBF02FA06F3BB40C7F1200699
:101DC00022FA06F638BF3343BA401CB1E419641E48
:101DD0002FE77F4231F00041B1FA81F404BFB0FA3D
:101DE00080F6A4190B3CB4F120062FBF00FA06F1CF
:101DF000A140C4F1200620FA06F638BF3143A040C6
:101E00003C1B16E7AC421ABF05EA1357AF4214E079
:101E100050EA41061CBF52EA4306BFE750EA4107B9
:101E2000304661461CBF41EA0551BDE8F08152EAE7
:101E3000430C08BFC143BDE8F08100204FF40016F9
:101E400016EB410F98BF16EB430F08BF16EB410F7F
:101E500024BFC14305E016EB430F0CBF61464CEABB
:101E60000551BDE8F081000080B5134800F0F6F898
:101E70000FF24C020FF244010160426241600FF226
:101E80004402826381600FF24402C16001614161DA
:101E900081618162C16201634163C2630164416423
:101EA00001BD10B5044800F0D9F80446206808B90F
:101EB000FFF7DAFF204610BD5000002000000000B0
:101EC0002E00000066616C73650000007472756519
:101ED0000000000091FBF2F303FB1211C0E9003196
:101EE0007047000080B5DFF80C0000F0B7F880699B
:101EF00002BD0000E000002030B430B90FF248000D
:101F0000D0E90045C2E900451BE00170012030BC6A
:101F1000704730B431B90FF23800D0E90045C3E959
:101F200000450EE01AB930BC6FF00100704708B1EF
:101F30000A7802800978481E804130BCC043C00F37
:101F40007047002030BC7047000000000000000017
:101F500000000000000000000749086808B10020E8
:101F600070470648C008C00008600549C908C90094
:101F7000091A0160704700BFDC0F002057050020E0
:101F80005007002070470000841A71EB030603D24B
:101F9000001BB141121973414FF4001C1CEB410F9F
:101FA00034BF7CEB430443E00C0DA4EB1356352EF9
:101FB00050DC45EAC323DB0A45EAC121C912B6F168
:101FC00020050DDD63FA05F6EB4086EA03051242B3
:101FD00018BF45F00105C01851F100010CD213E003
:101FE00062FA06F5F2405540F3415A40B340F340DF
:101FF0005A408018594107D349085FEA30005FEA28
:10200000350528BF45F0010501F58011420875F13D
:10201000004250F1000041EB0451F0BC4FF4001CB1
:102020001CEB410F38BF70470020090D09057047B0
:102030001CEB410F10D252EA43060BD0BCEB410F10
:1020400005D80C0DAB43661E342EB5DD02E0AB4364
:1020500080185941F0BC7047F0BC704770470000D1
:1020600038B5040009D004F17005686808B900F0BB
:102070000FF800F020F8012801D1012032BD606A7C
:1020800008B100F029F800F00EF821F02A0103E071
:102090002870204600F07EBC816000F016F8BDE894
:1020A000324000F071BB2068416821F490414160EA
:1020B00020688168704724206860206801684908AA
:1020C00049000160204600F0DDB92068016841F058
:1020D0000101016020467047204600F0F2BA2DE968
:1020E000F047044604F1700682B0706820288946E3
:1020F0001746984647D1B9F1000F14BF002F0120B1
:1021000042D0307801283ED00120307004F15005D3
:102110000020F0602120706000F09CFC2F8082463F
:102120006F80A068B0F5805F04BF206900280EBFF3
:1021300000274F464FF000090020307003E0018572
:102140006888401E688053466888CDF80080002863
:102150000ED00022802100F085F870B92068002F91
:1021600006BF39F8021BC1F3080117F8011BE6E7A7
:102170000022402100F076F808B1032004E020207E
:102180007060002000E00220BDE8F6872DE9F047EE
:10219000044604F1580782B0386A20280D461646D6
:1021A00099465CD1002D14BF002E012058D0387EF6
:1021B000012854D00120387600207862222038622D
:1021C00000F048FC3E8080467E80FF21A068B0F58C
:1021D000805F04D1206928B940F2FF1010E028B9CF
:1021E000206908B9B9800CE07F2009E0B0F1805F78
:1021F00005D12069002814BF3F207F2000E0002087
:10220000B880A068BE88B0F5805F04BF2069002850
:102210000EBF4FF0000AAA4600250020387602E0E3
:102220007888401E78807888A8B1CDF80090434621
:102230000022202100F016F808B1032010E02068E9
:10224000808CBAF1000F07BF304025F8020B3040F8
:102250000AF8010BE4E720203862002000E00220A9
:10226000BDE8F687204600F0BABA10B500F1580371
:102270001C6A202C45D109B1140001D1012010BDE8
:102280001C7E012C3DD001241C7641651A805A80A9
:1022900000219960FF228168B1F5805F04D1016956
:1022A00029B940F2FF1110E029B9016909B99A80F2
:1022B0000CE07F2109E0B1F1805F05D101690029BF
:1022C00014BF3F217F2100E0002199800021596245
:1022D0002221196201688A6842F001028A608168DD
:1022E000B1F5805F03BF01690029DFF89413DFF8BF
:1022F00094139960002119760068016841F4907187
:1023000001E0022010BD0160002010BD206881683E
:102310004906704738B5044640F60F052068C16984
:10232000026883680D400AD18D067BD5950679D564
:10233000216E080075D02046BDE834400847DD070F
:1023400003D4DFF844532A426CD0CD0707D5D50516
:1023500005D501250562E06F40F00100E0678807C0
:1023600008D5D80706D5256802202862E06F40F01E
:102370000400E067480708D5D80706D5256804207B
:102380002862E06F40F00200E06708070AD5900677
:1023900001D4D80706D5236808201862E06F40F002
:1023A0000800E067080509D5500107D523684FF4F8
:1023B00000601862E06F40F02000E067E06F0028E6
:1023C00058D0880606D5900604D5216E08001CBF9B
:1023D00020468847E06F21688968490602D410F0DA
:1023E000280F19D0204600F03AFAFFF78FFF0ED5DC
:1023F00000F041F858B10FF285418163E06E00F0C2
:102400002FFBB8B3E06E816BBDE83440084720462F
:10241000BDE8324000F04ABB204600F047FB0020F8
:10242000E06731BDCD0209D55B0207D54FF48011BD
:1024300001622046BDE8324000F039BB0B0608D5EA
:10244000130606D5616E080014D02046BDE834405E
:10245000084749060ED551060CD5016821F0400108
:10246000016020206067002060662046BDE83240A1
:1024700000F01EBB31BD816821F040018160E06E3B
:1024800070470000F8B50446814A2168814F08680A
:10249000814E1040A26810432269104362691043C4
:1024A000E2691043086000254868E26820F4405063
:1024B00010434860754AA06991421CBF236A1843C3
:1024C0008B6823F4306318438860B94273484FF433
:1024D00000432FD1366806F00306032E37D8DFE815
:1024E00006F0026B5C7D0127E169B1F5004F4FF604
:1024F000F07640F0A1805FB1012F00F09580022FAF
:102500000BD0042F00F09380082F00F09380B1E0EF
:1025100000F0DFFD002800F0AE8061684A0802EBA1
:10252000400000F0C7F8F2D206EA0001C0F3420012
:10253000084394E05A4FB94221D1366816F00C0690
:102540005DD0042E38D0082E27D00C2E46D0102770
:102550009142C9D137B1022F08D0042F51D0082F92
:1025600052D087E000F0B5FD00287AD0626802EB17
:102570004201884202D31103814247D27AE0494F97
:10258000B9420CD1366816F0300638D0102E13D070
:10259000202E02D0302E21D0D9E70227D8E7424F93
:1025A000B9420BD1366816F0C00628D0402E03D0B1
:1025B000802EF2D0C02EEEE70427C9E73B4FB94288
:1025C0000ED1366816F4407619D0B6F5807FF3D078
:1025D000B6F5007FE1D0B6F5407FB8D10827B7E760
:1025E0009142B4D1366816F4406608D0B6F5806FD3
:1025F000E2D0B6F5006FD0D0B6F5406FCBE700273C
:10260000A6E700F01EFDAFE71846AFE7010E56083B
:1026100016EB002069410023FEF7D0FFA0F54071C2
:10262000234A914226D21AE000F05BFD72E700F0E7
:1026300008FD6FE7184670E747B1012F12D0022F4F
:1026400007D0042F11D0082F12D013E000F041FD65
:1026500088B1616800EB510000F02CF80AD22168C3
:10266000C86008E000F03DFDF2E700F0EAFCEFE7AB
:102670001846EEE701250020206660662846F2BD78
:10268000B12800088D2800082001000400800040C7
:10269000F369FFEF00380140881002400024F40085
:1026A0000044004000480040004C00400050004002
:1026B00000FD0F00B0FBF1F080B2A0F11001B142BB
:1026C000704790F82410C90706D501684A68836AE4
:1026D00022F400321A434A6090F82410890706D584
:1026E00001684A68C36A22F480321A434A6090F84B
:1026F0002410490706D501684A68036B22F480223A
:102700001A434A6090F82410090706D501684A6800
:10271000436B22F400421A434A6090F82410C90621
:1027200006D501688A68836B22F480521A438A6056
:1027300090F82410890606D501688A68C36B22F4D4
:1027400000521A438A6090F82410490610D5016897
:102750004A68036C22F480121A434A60026CB2F594
:10276000801F05D14A68436C22F4C0021A434A60B4
:1027700090F82410090606D501684A68806C22F496
:102780000022104348607047F8B5044604F1700514
:102790000020E8606FF07E4700F05CF90646206894
:1027A0000068000707D50097334600224FF4001158
:1027B000FFF758FD58B920680068400709D5009711
:1027C000334600224FF48001FFF74CFD08B103208F
:1027D000F2BD20206860A86000202870F2BD2DE9BD
:1027E000F041069E04460D4690461F462068C0698B
:1027F0002840A8420CBF0120002040451CD116F102
:10280000010FF3D000F026F9C01B864200D316B9A1
:1028100000F015F80CE0206801684907E6D5C169A9
:102820000905E3D54FF40061016200F008F8C160CA
:1028300000210170032000E00020BDE8F081206845
:10284000016821F4D071016020688168490849005D
:10285000816004F17000202141608160704701684F
:102860000A6822F490720A6001688A68520852006D
:102870008A6020218167002101667047806A00F12B
:10288000520100220A810A8000F010B910B500F050
:1028900021F808D100F024F82270426D521C00F09B
:1028A00026F822B929E0108B40F00800108310BDF3
:1028B00010B500F00FF808D100F012F82280426D38
:1028C000921C00F014F822B917E0108B40F00800B9
:1028D000108310BD00F1600102688B69222B7047E4
:1028E000928C00F15A035C882240446D7047426527
:1028F0001A88521E1A801A8870470268136823F4D7
:10290000907300F008F820228A6100220A60BDE876
:10291000104000F059BC1360026893685B085B00CC
:1029200093607047464881B0816841F00101816041
:10293000816801F0010100910099016841F0805126
:102940000160006800F080500090009801B070476E
:1029500010B586B000F054F820683A49884217D183
:102960003948416941F480514161416901F4805124
:1029700000F058F8E020019002200290002003901F
:1029800003200490052005904FF0904000F06AFD70
:1029900006B010BD10B586B000F032F821682B4AA1
:1029A0002948914213D1416941F480414161416913
:1029B00001F4804100F036F84FF4C06000F025F8D3
:1029C00000220221252000F069FE252014E0204A83
:1029D000914213D1C16841F40031C160C16801F472
:1029E000003100F01FF80C2000F00FF80022032146
:1029F000262000F053FE262000F06EFE06B010BD2B
:102A0000044601A8142100F0A3BE01900220029008
:102A10000020039003200490072005904FF0904081
:102A200000F020BD00910099016841F001010160B2
:102A300001A9006800F001000090009870470000B4
:102A400058100240003001404C1002400038014054
:102A50000044004001484068704700BF000000206B
:102A600010B500F1240100244A78022A03D0042082
:102A70008861012418E00268136823F00E031360D4
:102A8000026813685B085B001360012291F8203034
:102A900003F01C039A40CB695A6001224A700C7003
:102AA00049690A0018BF8847204610BD7047704723
:102AB000704700002DE9F047040082B076D0DFF8BF
:102AC000B456DFF8BC76A86800F00C08E86800F09F
:102AD00003092078C00657D5B8F1000F05D0B8F12A
:102AE0000C0F08BFB9F1010F3AD12868800702D551
:102AF000A06900285AD0286800074EBF2868786867
:102B0000000900F0F001206A814206D200F0F5FAD7
:102B100000284BD100F0FAF918E0286840F00800CE
:102B200028602868216A20F0F00008432860B8F186
:102B3000000F6868E16920F47F4040EA0120686086
:102B400004D1206A00F0D9FA00282FD100F079FAD8
:102B5000AA6800F06DFA00F0D3F9010014D0CDE1BD
:102B6000A0690028286823D040F0010000F0E0F9B7
:102B700006462868800705D4FFF76CFF801B0328F2
:102B8000F7D3B8E100F0C2F92078C0074ED5B8F10C
:102B9000080F05D0B8F10C0F08BFB9F1030F15D11C
:102BA0002868800342D5606800283FD10120A5E154
:102BB0004008400000F0BCF9064628688007E3D5CD
:102BC000FFF748FF801B0328F7D394E16068B0F556
:102BD000803F06D0B0F5A02F286806D140F48020B1
:102BE0002860286840F4803005E020F480302860B8
:102BF000286820F480202860606858B1FFF72AFF19
:102C000006462868800311D4FFF724FF801B65283F
:102C1000F7D370E1FFF71EFF06462868800305D54D
:102C2000FFF718FF801B6528F7D364E12078800741
:102C300015D5B8F1040F05D0B8F10C0F08BFB9F1E4
:102C4000020F22D12868400502D5E0680028ADD0E7
:102C50006868216920F0F85040EA016068602078D7
:102C6000000741D56069002878682ED040F0010047
:102C70007860FFF7EFFE06467868800734D4FFF7E8
:102C8000E9FE801B0328F7D335E1E06800282868B7
:102C90000DD040F4807000F04BF9064628684005DE
:102CA000D6D4FFF7D7FE801B0328F7D323E120F407
:102CB000807000F03DF9064628684005CFD5FFF743
:102CC000C9FE801B0328F7D315E140084000786057
:102CD000FFF7C0FE06467868800705D5FFF7BAFE05
:102CE000801B0328F7D306E1207840075FD5A86D45
:102CF000C0004FF000090AD4A86D40F08050A865CC
:102D00004FF00109A86D00F0805000900098DFF8A6
:102D100074A4DAF80000C00512D4DAF8000040F418
:102D20008070CAF80000FFF795FE0646DAF800004A
:102D3000C00505D4FFF78EFE801B0328F6D3DAE02A
:102D4000A068012805D00528386806D140F00400A5
:102D50003860386840F0010005E040084000386005
:102D6000386820F00400386041F2893AA06858B110
:102D7000FFF770FE06463868800711D4FFF76AFE39
:102D8000801B5045F7D3B6E0FFF764FE064638686F
:102D9000800705D5FFF75EFE801B5045F7D3AAE0FC
:102DA000B9F1000F03D0A86D20F08050A865A06A8B
:102DB000002800F0A280022840F07D80E868E26AE6
:102DC00000F00301914201BF00F07001226B521E1E
:102DD000B1EB021F20D1626B00F4FE41B1EB022F78
:102DE0001AD1A16B07290CBF0021012100F4003288
:102DF0008A4211D1E26B921E120500F4C001520DFD
:102E0000B1EB425F08D1216C891E090600F0C06059
:102E100001F07E41884237D0B8F10C0F4DD02868C0
:102E2000400101D42868C0003FF5C0AE286820F0FA
:102E3000807000F07DF806462868800105D5FFF710
:102E400009FE801B0328F7D355E0E868DFF8381344
:102E50000840E16A0843216B491E40EA0110616B9A
:102E600040EA0120E16B891E0905490D40EA415005
:102E7000216C891E090601F07E410843A16B0909F6
:102E800040EA4140E86002E02868800135D42868C3
:102E900040F080702860E86840F08070E860FFF7DC
:102EA000D9FD06462868800127D4FFF7D3FD801B93
:102EB0000328F7D31FE0B8F10C0F3FF477AE286872
:102EC00020F080702860286810F0205F03D1E86847
:102ED00080088000E860E868DFF8B0120840E86029
:102EE000FFF7B8FD06462868800106D5FFF7B2FD5A
:102EF000801B0328F7D3032000E00020BDE8F687FD
:102F00000860DFF88C02006800F026BC286840F0FA
:102F1000080028602868216A20F0F0000843286033
:102F20006868E16920F47F4040EA012068607047EA
:102F30002860FFF78FBD2DE9F041040088464AD094
:102F4000DFF85062306800F00700404502D200F020
:102F500065F840D12078DFF81C72C0072AD5606878
:102F6000032802D13968890108E0022802D13968B2
:102F7000890303E00028396802D1890702D42AE0D6
:102F8000490528D5B968890840EA8100B860FFF78B
:102F900061FD0546B868616800F00C00B0EB810F78
:102FA00008D0FFF757FD401B41F289318842F1D329
:102FB000032031E02078800705D5B868A16820F0AB
:102FC000F0000843B860306800F00700804504D284
:102FD00000F024F801D001201EE02078400705D53C
:102FE000B868E16820F4E0600843B8602078000722
:102FF00006D5B868216920F4605040EAC100B86085
:1030000000F01FF8BA6800F013F80860BDE8F0415E
:103010005F48006800F0A0BBBDE8F0813068C008E0
:1030200048EAC0003060306800F007004045704753
:103030005949C2F30312895C01F01F01C8404E498F
:10304000704770B54B49564C8A68CB680025002004
:1030500012F00C0203F00306524B03D00C2A12D1DB
:10306000012E1AD10D682D0704D4444D2D68C5F3E7
:10307000032502E00D68C5F303154B4E56F82550A5
:103080004AB9284670BD042A01D1204670BD082ADD
:103090001ED1184670BD0C2A1AD1C86800F0030072
:1030A000022803D0032808BF1D4600E02546C86853
:1030B000CA68C968C2F30622C0F30210C1F34161B5
:1030C0006A43401C491CB2FBF0F04900B0FBF1F030
:1030D00070BD2948314A006812683449C2F302229F
:1030E00006E025482D4A006812683049C2F3C22222
:1030F000895C01F01F01C840704770B52C4E82B04A
:10310000054630680024C00002D500F049FB0EE0FF
:10311000306840F080503060306800F0805000909F
:10312000009800F03DFB316821F080513160B0F52E
:10313000007F04D1812D0DD3A12D0AD305E0812D6F
:1031400028BF032406D2802D01D1022402E0702D75
:1031500000D101240F480168C90844EAC101016097
:10316000006800F00700A04201D0012076BD0020D9
:1031700076BD0000001002400C00002094100240B8
:1031800090100240007000408C809DF9FFFFEEFE21
:10319000080000200020024090470008081002406C
:1031A0000024F40000127A00A0470008104A00082A
:1031B0005810024001B402E00098401E00900098B0
:1031C0000028F9D101B0704738B5974C974804F101
:1031D000800500954123021D811C00F034FB294627
:1031E0002046BDE838400122FFF73FB838B500F06F
:1031F0004FFB00F05DF800F061FB00F097F88C4C9D
:103200008C4820604FF4E1354FF4827060600020FC
:10321000A0604FF4E060E0600020206160614FF446
:103220000070A0613020E061002020626062A06236
:103230000720E0620020206308206063204600F041
:1032400047FB7D48606600210020E06620676067DC
:10325000A5660C20A0670020E067C4F8800004F198
:1032600084000160416004F16400FEF7F9FE6E4CD9
:103270007248206065600020A060E06020610C2042
:1032800060610020A061E061206260622046FEF77C
:10329000E7FE012204F180012046FEF7E6FF284602
:1032A00000F01CFC00F06FFD642000F08FFEF9E7D9
:1032B00000B5B9B005A8442100F04AFA68461421C7
:1032C00000F046FA16A8882100F042FA0220059084
:1032D0004FF4807008901020099002200F901090F9
:1032E000012011900A2012900720139002201490C0
:1032F000159005A8FFF7DEFB0F20009004210320A6
:10330000019000200290039004906846FFF713FE9E
:103310000320169000202490259016A800F06AFE45
:103320004FF4007000F042FA39B000BD30B587B0FC
:1033300001A8142100F00CFA4148424C016841F008
:10334000040101600122016801F00401009140F2D2
:1033500013150099016841F001010160016801F055
:10336000010100910099016841F00201016003210F
:10337000006800F0020000900098204600F050F92C
:10338000012229464FF0904000F04AF94FF40050D6
:10339000019001A92C48029000200390204600F0E3
:1033A00061F80320019001A9012002900020039000
:1033B0000490204600F056F801200290019500206C
:1033C0000390049001A94FF0904000F04BF84FF4A7
:1033D0008F60019001A91D480290012003901C48B4
:1033E00000F040F800220121092000F057F90920DF
:1033F00000F072F9002201210A2000F04FF90A20A2
:1034000000F06AF900220121172000F047F9172087
:1034100000F062F900220121282000F03FF9282065
:1034200000F05AF907B030BD5C0E0020540C0020AB
:103430009C0C002000300140003801400044004056
:103440004C1002400008004800002110000011103C
:103450000004004810B50446C0B201F069F82046E7
:1034600010BD00002DE9F84F0026744A744BDFF8B8
:10347000D4814FF00F092EE0BD402C4343F82C407F
:103480006FEA0A05146805EA040E4C68E40348BFB5
:103490004AEA0E0EC2F800E0546805EA040E4C68D1
:1034A000A40348BF4AEA0E0EC2F804E0946805EA95
:1034B000040E4C68E40248BF4AEA0E0EC2F808E067
:1034C000D46805EA040C4C68A40248BF4AEA0C0C14
:1034D000C2F80CC0761C0D6835FA06F400F09E8028
:1034E000012707FA06F414EA050AF3D04FEA460C5E
:1034F000032505FA0CF56FEA050E4D68E443012D2E
:1035000018BF022D03D0112D18BF122D0FD18568C1
:10351000CF680EEA050507FA0CF73D43856045685C
:103520004F68C7F300172540B7403D4345604D68DD
:1035300005F00307032F06D1C76AC5F3C0053C4059
:10354000B5402C43C462C4688D680EEA040405FAD1
:103550000CF52C43C460B4004D68022D18BF122D29
:1035600015D1F50800EB850504F01C0B2F6A09FA4C
:103570000BFB27EA0B07009704F01C07D1F810B0EB
:103580000BFA07F7DDF800B047EA0B072F62056872
:103590000EEA05070D7905F0030505FA0CF53D4324
:1035A00005604D68ED0095D5D8F8005045F001054F
:1035B000C8F800504FEA960CD8F8005005F0010505
:1035C000009504F00C07009D53F82C5009FA07F4FD
:1035D00025EA0404B0F1904F08BF00251DD01A4D14
:1035E000A84208BF012518D0184DA84208BF0225DF
:1035F00013D0174DA84208BF03250ED0154DA84281
:1036000008BF042509D0144DA84208BF052504D0E1
:10361000124DA8420CBF062507252DE7BDE8F18F06
:103620000AB181617047816270470D4A1368034295
:103630001CBF106000F016B8704700000004014085
:1036400008000140601002400004004800080048E3
:10365000000C004800100048001400480018004802
:1036600014040140704700000901020002D43048F0
:10367000815470472F4802F00F02104400F8041CD8
:1036800070472D490A684FF6FF0300021A4000F404
:10369000E0601043294A10430860704738B5264B54
:1036A0001B68C3F30223C3F10704052C28BF0424BD
:1036B0001D1D072D34BF0023DB1E012505FA04F470
:1036C000641E2140994005FA03F35B1E1A40114322
:1036D000BDE83440C8E70000002807D4012100F00D
:1036E0001F029140164A400942F82010704710B559
:1036F000401EB0F1807F01D3012010BD114C6060ED
:103700000F214FF0FF30FFF7AFFF0020A060072030
:103710002060002010BD002807D4012100F01F0206
:103720009140094A400942F82010704700F00EB855
:1037300000E400E018ED00E00CED00E00000FA0508
:1037400000E100E010E000E080E200E070470000EF
:10375000002200F0F9BE000070B50F4E044630782C
:103760000025010014D04FF47A71B1FBF0F00B4941
:103770000968B1FBF0F0FFF7BAFF48B9102C07D287
:10378000002221464FF0FF30FFF788FFB46000E0D1
:103790000125284670BD00BF000000200C0000205D
:1037A000DFF86C00006800F4C0607047DFF860105C
:1037B000B0F5007F086800F4C0601ED1B0F5007F4E
:1037C00024D0086820F4C06040F400700860322201
:1037D000DFF8400000685043DFF83C20B0FBF2F017
:1037E000401C00E0401E4A69520501D50028F9D16D
:1037F000486940050AD503207047B0F5806F05D0B1
:10380000086820F4C06040F48060086000207047C1
:10381000007000400C00002040420F000988008822
:10382000491C91FBF3F203FB1211814201D10120EB
:1038300070470020704700880988884201D1012024
:1038400070470020704770B50C4616461D46FFF7BE
:10385000E5FF08B1002070BD0498218800787054FD
:103860000CE070B5044616461D46FFF7E4FF08B1AC
:10387000002070BD20880499305C08702088401CAE
:1038800090FBF5F105FB11002080012070BD0000C8
:10389000094810B5016841F4807101600320FFF709
:1038A000F0FE0020FFF758FF0024002814BF012479
:1038B000FFF738F8204610BD00200240DFF80C006A
:1038C00000214170818100F059BE0000760F002078
:1038D00038B5040001D1012032BD606A28B900F07A
:1038E00060F805D00020E06102E000202061606106
:1038F0000020A06204F15C05687818B928702046A1
:10390000FFF726F80220687000F04FF8E168B1F583
:10391000E06F04D90020B1F5706F03D104E04FF4DB
:10392000805001D00021A1626168A26801F4827117
:1039300002F404421143227C02F002021143227D70
:1039400002F001021143A26902F400721143227FC6
:1039500002F03802114394F8202002F08002114353
:10396000A26A02F40052114322681160A16994F81E
:103970002420090C01F0040102F01002114394F814
:10398000342002F008021143E26802F4706211432D
:1039900008432168486000206860012068700020AA
:1039A00032BD6068B0F5827F70472068016821F001
:1039B000400101607047000080B50FF2084000F040
:1039C00001FE012002BD80B50FF2204000F0FAFD9B
:1039D000002002BD0FF24040DFF8D05300F0F2FDAE
:1039E0006CA400F0D9F82846FFF7E4FB00F0D4F807
:1039F0002846FFF7DFFB00F0CFF8BFF34F8FDFF86B
:103A0000B003DFF8B023016801F4E0611143016005
:103A1000BFF34F8F00BFFDE72DE9F0410500DFF850
:103A200098834FF4A06008EB000467782DD02846F7
:103A3000FDF794FC86B2802E27DA002F1DBF781E7A
:103A40000006400C4FF4906032462946404400F096
:103A5000CBFDC0B1802108EBC71000F0F7FD607806
:103A60003246294608EBC010FDF72CFD20780A28C5
:103A7000BCBF401C20706078401C6070C0B20A2837
:103A8000A4BF002060700020A070BDE8F08130B5B8
:103A9000C94A4FF4A06313441C78250001D10120CA
:103AA00030BD9D78012803D1A54204D26D1C02E0EF
:103AB000022DA8BF6D1E9D7098785B7800E0401EB7
:103AC000C4B22CB1DCB2002C14BF5B1E0923F6E794
:103AD0001B0602EB53400860002030BD70B5B64CA9
:103AE000452104F20450FFF733FE40F2035100F089
:103AF0003DF900240FF23C350FF2B04000EB04100A
:103B00008068010005D0804718B92146284600F09A
:103B100059FD641C022CEFD30FF23C340FF24835F0
:103B20000FF24C3699A000F04DFD0FF2243000F05A
:103B300049FD00F031F80FF2283000F043FD94A069
:103B400000F040FD284600F03DFD304600F03AFD13
:103B500000F022F80FF23C3000F034FD0FF23C3060
:103B600000F030FD0FF2583000F02CFD0FF27430F1
:103B700000F028FD0FF2983000F024FD284600F0F8
:103B800021FD304600F01EFD2046BDE8704000F0EB
:103B900019BD00002E000000204600F013BD2DE9E5
:103BA000F84F864C0FF2703804F1800582462E786B
:103BB0004FF000090FF2DC1B01E0781C2870287818
:103BC000802866DA2044009041230AF104020AF1B9
:103BD00002015046FFF745FE01280DD12F78E05D28
:103BE0000828EAD1002FEAD0012100F0C3F800F044
:103BF000C4F82878401EE1E7CDF800902F78032F15
:103C00003DDB65A100F0BCF8F0B100F0B2F800F0C7
:103C1000B4F869460120FFF73AFF40BB00F0A5F871
:103C20000098FDF79BFB024600992046FDF74AFCF1
:103C30000098FDF793FB287058A0297804F80190AC
:103C4000214600F0BFFC24E055A100F099F830B106
:103C500000F08FF800F091F869460020DBE751A1F1
:103C600000F08EF818B950A100F08AF838B1297820
:103C700000F080F800F081F800F077F809E0BE422B
:103C800007DAA05D00F054FC761C2878F6B2864274
:103C9000F7DB28782118012804D111F8010C0D2830
:103CA0005CD159E0022859DB11F8010C0D2855D1DF
:103CB00001F8019C00260FF2682000F083FC0FF24F
:103CC000EC2000EB061BDBF800703846FDF746FBE6
:103CD00002463946204600F0BCFC98BB3846FDF74A
:103CE0003DFB2978A1EB00083846FDF737FBDBF8F0
:103CF0000C704FF00109824607B30FF2402000F02C
:103D000061FC5FFA88F104EB0A00B84778B10FF262
:103D1000442000F057FC2046FFF77EFE287901285A
:103D200010D12978002060540FF2342008E00FF2FF
:103D3000382000F047FCDBF8040001E00FF23C20E3
:103D400000F040FC761C022EB9D3B9F1000F04BF7D
:103D50000FF23C2000F036FC0020287028788028E4
:103D6000A4BF00202870BDE8F18F81212046FFF715
:103D7000EFBC3946404600F025BC584600F022BC56
:103D8000204600F07CBC0E4809E70000200D0A0028
:103D90001B5B48001B5B4B001B5B41002573000055
:103DA0001B5B42001B5B43001B5B4400FFFF8F005B
:103DB0000CED00E00400FA0550070020F00E002092
:103DC000540C002074686973206973206A756E66EC
:103DD000656E6720696E69742066756E6374696FBD
:103DE0006E206F6620636C690A0000007468697356
:103DF000206973206A756E66656E672065786563F5
:103E00007574652066756E6374696F6E206F6620C9
:103E1000636C690A000000000D0A5B454E445D3A80
:103E20002053797374656D205265626F6F74696E8B
:103E3000670000000D0A2D3E2046554E5B25645D4F
:103E400020494E49542057524F4E470D0A0000005A
:103E50001B5B313B34306D001B5B313B33326D00FB
:103E60001B5B324A000000001B5B313B33336D00AB
:103E70002D2D2D2D2D2D2D2D2D2D2D2D2D2D2D2D72
:103E80002D2D2D2D2D2D2D2D2D2D2D2D2D2D2D0D82
:103E90000A0D0A001B5B376D000000002020202067
:103EA000434C492076657273696F6E3A2056302E06
:103EB00031202020202020202020200D0A0D0A0063
:103EC00020202020636F6465723A204361742020B3
:103ED0002020202020202020202020202020200DF5
:103EE0000A0D0A0020202020456D61696C3A206A85
:103EF000756E66656E672E77656940686F6E65736F
:103F00007461722E636F6D202020200D0A0D0A004F
:103F10001B5B32376D0000001B5B25644400000012
:103F200063616C6C206A756E66656E672066756E7F
:103F30006374696F6E312D2D0A00000063616C6C33
:103F4000206A756E66656E672066756E6374696F4C
:103F50006E0A00000D0A2D3E204F4B0D0A00000096
:103F60003030310A000000000D0A2D3E2050415231
:103F7000412E204552520D0A000000000D0A2D3E30
:103F80002046554E432E204552520D0A0000000097
:103F90000D0A2D3E20434D44204552522C20747270
:103FA000793A2068656C700D0A0D0A0064480008B3
:103FB0008C480008B9390008D53900086C48000859
:103FC00074480008B9390008C739000838B50446F4
:103FD000FEF740FD14F1010F054602D004480078B9
:103FE0002418FEF737FD401BA042FAD331BD00BFB5
:103FF000000000202DE9F047044682B02068DFF879
:10400000E05400260005B04621D5606E70B1B0F5D1
:10401000800F17D0B0F5000F03D0B0F5400F09D0D6
:1040200013E0286840F48030286004E0002100F0AC
:1040300076F9064656B9E86F616E20F440000843F1
:10404000E86704E000F060F9F3E70126B046206875
:10405000C00421D5A06EA8B1B0F1807F17D0B0F117
:10406000007F03D0B0F1407F04D013E0286840F413
:10407000803028607EB9E86FA16E20F04070084360
:10408000E86709E0002100F04AF90646F2E700F08F
:104090003BF9FAE70126B0462068800329D5E86C91
:1040A0000027C00009D4E86C40F08050E864012784
:1040B000E86C00F0805000900098DFF85C94D9F82C
:1040C000000040F48070C9F80000FEF7C3FC82468F
:1040D000D9F80000C0057DD4FEF7BCFCA0EB0A00B7
:1040E0000328F5D30326B0461FB1E86C20F08050BA
:1040F000E8642078C00705D5E86FA16B800841EA25
:104100008000E8672078800705D5E86FE16B20F034
:104110000C000843E8672078400705D5E86F216C5C
:1041200020F030000843E8672078000705D5E86FE5
:10413000616C20F0C0000843E8672078C00605D510
:10414000E86FA16C20F440700843E867207880068F
:1041500005D5E86FE16C20F440600843E86720680B
:10416000800505D5E86FE16D20F440200843E8673D
:104170002068400505D5E86F216E20F44010084303
:10418000E8672078400605D5E86F216D20F440509F
:104190000843E8672078000605D5E86F616D20F4D4
:1041A00040400843E8672068C00505D5E86FA16D69
:1041B00020F440300843E8672068800444D5E86F65
:1041C000E16E00F09CF8E06EB0F1006F35D100F0C8
:1041D000A0F839E0002E86D1DFF84063306810F493
:1041E00040701CBFD4F8841088420BD0306831680E
:1041F00041F48031316020F44070316821F4803125
:1042000031603060C00710D5FEF724FC824630686C
:1042100080070AD4FEF71EFCA0EB0A0041F28931A8
:104220008842F4D34FF003085EE73068D4F8841076
:1042300020F440700843306056E7B0F1806F03D13E
:1042400000F06CF800B180462068000311D5E86FDB
:10425000216F00F054F8206FB0F1006F02D100F030
:1042600058F806E0B0F1806F03D100F057F800B1C4
:1042700080462068400311D5E86F616F00F03FF879
:10428000606FB0F1006F02D100F043F806E0B0F1CA
:10429000806F03D100F042F800B1804620684004EE
:1042A00017D5E86FA16F20F040500843E867A06F72
:1042B000B0F1805F03D1022100F031F807E0B0F1E6
:1042C000005F06D1022104F1200000F099F800B14E
:1042D00080462068000405D5E86FE16F20F080403B
:1042E0000843E8672068C00306D5E86FD4F880105B
:1042F00020F000400843E8674046BDE8F68720F01C
:1043000040600843E8677047002104F1200000F096
:1043100077B8286840F48010286070470121201D7C
:10432000FFE72DE9F04104467D4F20680D46F9680E
:10433000002611F0030F09D0F96801F00301814252
:104340002AD148B300F0CEF80CD025E0012804D0E3
:1043500022D303281AD015D31EE0396889071BD54C
:1043600000F0C7F8386820F0806000F0D2F880468E
:104370003868000112D5FEF76DFBA0EB080003289A
:10438000F6D32FE039684905EAD405E03968890396
:10439000E6D439684903E3D4012629E0A0681DB9B1
:1043A000396900F093F80EE0012D396906D15D4AB4
:1043B000114041EA002000F01CF804E000F081F810
:1043C000616900F0A0F83861386840F0806000F062
:1043D000A0F805463868000106D4FEF73BFB401BF9
:1043E0000328F7D3032603E03869A169084338613D
:1043F00064E02169891E0905490D40EA4150704772
:104400002DE9F0410446464F20688846F9680026A9
:1044100011F0030F09D0F96801F00301814229D19D
:1044200040B300F05FF80CD024E0012804D021D381
:10443000032819D014D31DE0396889071AD500F074
:1044400058F8386820F0805000F063F80546386866
:10445000800011D5FEF7FEFA401B0328F7D327E0B2
:1044600039684905EBD405E039688903E7D4396830
:104470004903E4D4012621E0A0687969B8F1000F6E
:1044800002D100F023F804E000F01BF8216900F0ED
:104490003AF87861386840F0805000F03AF8054604
:1044A0003868800006D4FEF7D5FA401B0328F7D3FE
:1044B000032603E078696169084378613046BDE806
:1044C000F081194A114041EA00207047174A114013
:1044D00041EA0020E168090940EA414070470000D4
:1044E0000C100240F8686168C0F30210401C88425A
:1044F0007047F96821F0730108436168491E40EA7A
:104500000110F8607047891E090601F07E410843DA
:1045100070473860FEF79EBA00700040901002406D
:1045200000100240FF809FFFFF80FFF9FF80FDFF2A
:1045300001B54FF47A73012269460248FDF7CFFDB9
:1045400001BD00005C0E002000B500BF13009646C0
:104550009446103928BFA0E80C50FAD85FEA417C95
:1045600028BF0CC048BF40F8042BC90728BF20F85B
:10457000022B48BF00F8012B00BD000080B50D489C
:10458000C82200F1140100F091F8012002BD80B5AD
:104590000146012301220848FDF7F8FD0EE080B531
:1045A0006846FFF7F4FF20B99DF80010014800F0BD
:1045B00086F802BD800D00205C0E002000B10120B5
:1045C00002BD00000EB400B582B003A900910246FE
:1045D0006B460121034878440A30FBF7D5FD06BC41
:1045E0005DF810FBED0300000300002013F0030F43
:1045F00009D0521E22BF13F8010B11F801CBB0EB0A
:104600000C00F3D07047121F22BF53F8040B51F86F
:1046100004CB6045F7D0121D0AD200BA9CFA8CFC7C
:10462000B0EB0C0038BF6FF0000088BF012070476E
:10463000521E22BF13F8010B11F801CBB0EB0C0096
:10464000F6D0521C08BF104670470000002200F050
:1046500049B810B401E0491C521E6AB10B780478C5
:104660009C4205D010BC2CBF01204FF0FF3070479A
:1046700010F8013B002BEED110BC0020704770B544
:104680000C462578290006D170BD11F8013F167837
:10469000B34206D0401C2946FCF754FE28B101461F
:1046A000224612F8013F002BEFD170BD01608160FE
:1046B000C1608B180021436002828174704710B57D
:1046C00082684468531CA34202D1048A6442234492
:1046D000C468A34202D01170836010BD01218174AF
:1046E00010BD0000401810F0030308D0C91A1FD3F2
:1046F000DB0748BF00F8012D28BF20F8022D13006A
:1047000030B414461546103928BF20E93C00FAD8C9
:10471000490728BF20E90C0048BF40F8042D890054
:1047200028BF20F8022D48BF00F8012D30BC70478B
:10473000C91818BF00F8012DCB0728BF00F8012DBC
:10474000704700000E480F4A016841F47001016093
:104750000D48016841F0010101600021816001689C
:10476000114001604FF48051C160016821F4802143
:104770000160002181614FF00060044908607047CA
:1047800088ED00E0FFFFF6EA0010024008ED00E0CF
:1047900000000000000000000102030406070809F1
:1047A000A0860100400D0300801A060000350C00B1
:1047B00040420F0080841E0000093D0000127A0074
:1047C0000024F40000366E010048E801006CDC02B1
:1047D0007047FEE7FEE7FEE7FEE770477047704769
:1047E00080B5FEF7A3FFBDE8014000F033B8082014
:1047F000FEF71BBF1020FEF718BF80B52020FEF784
:1048000014FFBDE802404020FEF70FBF0948FDF746
:1048100081BD10B5084C20680068800648BFFFF7CE
:10482000BEFE2620FEF777FF2046BDE81040FDF7CC
:1048300071BD0000000D00205C0E002080B54FF41B
:104840008060FEF7F2FEBDE802404FF40050FEF734
:10485000ECBE000002484168027889184160704748
:10486000000000207265626F6F7400006A756E66EA
:10487000656E67006A756E66656E67206973206194
:1048800020676F6F6420626F790A00005B72656257
:104890006F6F745D0D0A202A207265626F6F74203D
:1048A0004D43550D0A0D0A0019E050F8041BCB07C3
:1048B00044BFA9F101035918121F0023042A41F82B
:1048C000043BF9D25FEA827C0B4604D54FF0000C22
:1048D000A1F800C09B1CD10744BF0021197050F8FB
:1048E000042B002AE1D1704730B501684268846822
:1048F000014401EB5203D20748BF4C44994201D115
:104900000C3030BD11F9012B11F8015B002A04F8BD
:10491000015B02D5521CF9D1F0E7521EF4D5EDE748
:1049200010B5074979441831064C7C44163404E02C
:104930000A68081D114488470146A142F8D110BDFC
:104940002C000000480000004EF68851CEF2000115
:10495000086840F470000860BFF34F8FBFF36F8F9B
:104960004FF00070E1EE100A704700003DFFFFFFBE
:104970009008000050070020000000006DFFFFFFBE
:10498000C4010000700000000000002000F00BF8DF
:10499000002801D0FFF7C4FF0020AFF30080FEF72E
:1049A00025FC00F002F80120704700F001B800007B
:1049B0000746384600F002F8FBE7000080B5AFF389
:1049C0000080024A11001820ABBEFBE7260002005F
:1049D00038B504460D46284600F006F8A84218BF30
:1049E0000024204632BD00000149FEF733BD00BF60
:1049F0001000002001488047014800474547000853
:104A0000054A0008AFF30080FFF79EFFFFF7BEFFE7
:104A10000000000001020304FFF7FEBFFFF7FEBF26
:104A2000FFF7FEBFFFF7FEBFFFF7FEBFFFF7FEBFBA
:104A3000FFF7FEBFFFF7FEBFFFF7FEBFFFF7FEBFAA
:104A4000FFF7FEBFFFF7FEBFFFF7FEBFFFF7FEBF9A
:104A5000FFF7FEBFFFF7FEBFFFF7FEBFFFF7FEBF8A
:104A6000FFF7FEBFFFF7FEBFFFF7FEBFFFF7FEBF7A
:104A7000FFF7FEBFFFF7FEBFFFF7FEBFFFF7FEBF6A
:104A8000FFF7FEBFFFF7FEBFFFF7FEBFFFF7FEBF5A
:104A9000FFF7FEBFFFF7FEBFFFF7FEBFFFF7FEBF4A
:104AA000FFF7FEBFFFF7FEBFFFF7FEBFFFF7FEBF3A
:104AB000FFF7FEBFFFF7FEBFFFF7FEBFFFF7FEBF2A
:104AC000FFF7FEBFFFF7FEBFFFF7FEBFFFF7FEBF1A
:104AD000FFF7FEBFFFF7FEBFFFF7FEBFFFF7FEBF0A
:104AE000FFF7FEBFFFF7FEBFFFF7FEBFFFF7FEBFFA
:104AF000FFF7FEBFFFF7FEBFFFF7FEBFFFF7FEBFEA
:104B0000FFF7FEBFFFF7FEBFFFF7FEBFFFF7FEBFD9
:104B1000FFF7FEBFFFF7FEBFFFF7FEBFFFF7FEBFC9
:104B2000FFF7FEBFFFF7FEBFFFF7FEBFFFF7FEBFB9
:104B3000FFF7FEBFFFF7FEBFFFF7FEBFFFF7FEBFA9
:104B4000FFF7FEBF0001F9000010FC0022093D0044
:104B500002040101840F0020D40F0020840F0020E4
:104B6000840F0020840F00204D000020340000201E
:0C4B7000C400F8FFDC00FAFF8100D10057
:0400000508004A05A0
:00000001FF
